:020000040000FA
:06080000ACEF3DF0120018
:02080600FEFFF3
:060808002DEF2CF01200A0
:02080E00C250D6
:08081000020B01E0010E1200D1
:0608180018EF39F0120098
:02081E000900CF
:10082000987C0000C20200000C0000006E7C0000FA
:10083000CD0100002A000000687C0000F7010000E4
:1008400006000000647C0000D802000004000000E4
:10085000147C00000002000050000000127C000028
:10086000E202000002000000F97B0000E00000004E
:100870001900000006080000E0020000020000006D
:0C088000F67B0000FD01000003000000FA
:04088C00BAC139F0C4
:10089000BEEC2FF037C004F038C005F039C006F0C8
:1008A0003AC007F03C6A3D6AFE0E3E6E420E3F6E55
:1008B00004C037F005C038F006C039F007C03AF080
:1008C000E5EC2FF037C000F038C001F039C002F07D
:1008D0003AC003F03C6A3D6A7F0E3E6E430E3F6EA7
:1008E00000C037F001C038F002C039F003C03AF060
:1008F0007BEC30F037C022F238C023F239C024F24A
:100900003AC025F2BBC139F0BEEC2FF037C004F07D
:1009100038C005F039C006F03AC007F03C6A3D6ABD
:10092000FE0E3E6E420E3F6E04C037F005C038F03A
:1009300006C039F007C03AF0E5EC2FF037C000F000
:1009400038C001F039C002F03AC003F03C6A3D6A99
:100950007F0E3E6E430E3F6E00C037F001C038F090
:1009600002C039F003C03AF07BEC30F037C01AF225
:1009700038C01BF239C01CF23AC01DF2BCC139F0BC
:10098000BEEC2FF037C004F038C005F039C006F0D7
:100990003AC007F03C6A3D6AFE0E3E6E420E3F6E64
:1009A00004C037F005C038F006C039F007C03AF08F
:1009B000E5EC2FF037C000F038C001F039C002F08C
:1009C0003AC003F03C6A3D6A7F0E3E6E430E3F6EB6
:1009D00000C037F001C038F002C039F003C03AF06F
:1009E0007BEC30F037C016F238C017F239C018F27D
:1009F0003AC019F2BDC139F0BEEC2FF037C004F097
:100A000038C005F039C006F03AC007F03C6A3D6ACC
:100A1000FE0E3E6E420E3F6E04C037F005C038F049
:100A200006C039F007C03AF0E5EC2FF037C000F00F
:100A300038C001F039C002F03AC003F03C6A3D6AA8
:100A40007F0E3E6E430E3F6E00C037F001C038F09F
:100A500002C039F003C03AF07BEC30F037C01EF230
:100A600038C01FF239C020F23AC021F20101B95159
:100A700002010A6F0B6B0B3504E20A51C808000E25
:100A80000B5503E2C80E0A6F0B6B640E0BAF02D05E
:100A9000D89003D00A5D000E0B5903E2640E0A6F72
:100AA0000B6B960E0A5F000E0B5B050E3D6E3E6AE9
:100AB0000AC238F00BC239F03BEC31F038C00AF210
:100AC00039C00BF20101B55102010C6F0D6B0D35F0
:100AD00004E20C51C808000E0D5503E2C80E0C6F5D
:100AE0000D6B640E0DAF02D0D89003D00C5D000EDC
:100AF0000D5903E2640E0C6F0D6B960E0C5F000E29
:100B00000D5B050E3D6E3E6A0CC238F00DC239F029
:100B10003BEC31F038C00CF239C00DF20101B85194
:100B200002010E6F0F6B0F3504E20E51C808000E64
:100B30000F5503E2C80E0E6F0F6B640E0FAF02D09D
:100B4000D89003D00E5D000E0F5903E2640E0E6FB5
:100B50000F6B960E0E5F000E0F5B050E3D6E3E6A2C
:100B60000EC238F00FC239F03BEC31F038C00EF253
:100B700039C00FF2BCEF05F0D9CFE6FFE1CFD9FFC6
:100B80000A0EE1260F0EDE6EDD6A020EDB6A030E30
:100B9000DB6A040EDB6A050EDB6A060EDB6A070EF3
:100BA000DB6A080EDB6A090EDB6A0101AE51020B3B
:100BB00020E0020146511DE13C07000E3D5B480E5E
:100BC0003C6EE10E3D6E7A0E3E6E3F0E3F6E32C2BF
:100BD00037F033C238F034C239F035C23AF0CEECD7
:100BE00030F037C032F238C033F239C034F23AC094
:100BF00035F20101AE51010B20E0020142511DE12D
:100C00003C2B000E3D23480E3C6EE10E3D6E7A0EED
:100C10003E6E3F0E3F6E32C237F033C238F034C200
:100C200039F035C23AF07BEC30F037C032F238C0E0
:100C300033F239C034F23AC035F20101AF51020B40
:100C400020E0020147511DE13807000E395B480ED4
:100C50003C6EE10E3D6E7A0E3E6E3F0E3F6E2AC236
:100C600037F02BC238F02CC239F02DC23AF0CEEC5E
:100C700030F037C02AF238C02BF239C02CF23AC01B
:100C80002DF20101AF51010B20E0020143511DE1A2
:100C9000382B000E3923480E3C6EE10E3D6E7A0E65
:100CA0003E6E3F0E3F6E2AC237F02BC238F02CC288
:100CB00039F02DC23AF07BEC30F037C02AF238C060
:100CC0002BF239C02CF23AC02DF20101AE51200BAB
:100CD00020E0020148511DE13607000E375B480E47
:100CE0003C6EE10E3D6E7A0E3E6E3F0E3F6E26C2AA
:100CF00037F027C238F028C239F029C23AF0CEECDA
:100D000030F037C026F238C027F239C028F23AC096
:100D100029F20101AE51100B20E0020144511DE106
:100D2000362B000E3723480E3C6EE10E3D6E7A0ED8
:100D30003E6E3F0E3F6E26C237F027C238F028C203
:100D400039F029C23AF07BEC30F037C026F238C0D7
:100D500027F239C028F23AC029F20101AE51020B44
:100D600001E0010E0201466F0101AF51020B01E0EB
:100D7000010E0201476F0101AE51200B01E0010E8F
:100D80000201486F0101AE51010B0201426F0101E6
:100D9000AF51010B0201436F0101AE51100B01E095
:100DA000010E0201446F0101AF51100B01E1CBD0E4
:100DB000AF51200B01E1C7D0AFAD12D0AFAF08D01B
:100DC000010EF36E020EF3CFDBFF030EDB6A07D0DA
:100DD000010EF36E040EF3CFDBFF050EDB6A11D0BC
:100DE000AFAF08D0010EF36E080EF3CFDBFF090E94
:100DF000DB6A07D0010EF36E060EF3CFDBFF070EA2
:100E0000DB6AD950020FE96EDACFEAFFEE50ED103F
:100E100006E002014C5103E1122B000E1323D950BE
:100E2000040FE96EDACFEAFFEE50ED1006E00201A2
:100E30004D5103E11207000E135BD950060FE96E06
:100E4000DACFEAFFEE50ED1006E002014E5103E169
:100E5000102B000E1123D950080FE96EDACFEAFFEC
:100E6000EE50ED1006E002014F5103E11007000EB5
:100E7000115B020EDBCF4CF2040EDBCF4DF2060EFF
:100E8000DBCF4EF2080EDBCF4FF2DECF00F0DDCF2E
:100E900001F0000E006C011E012202011351011825
:100EA000E8AE02D0013404D00050125D0150135955
:100EB00008E2DECF12F2DDCF13F2126D131F000E27
:100EC0001323DECF00F0DDCF01F001501319E8AE9F
:100ED00002D0133504D01251005C1351015804E2C2
:100EE000DECF12F2DDCF13F2DECF00F0DDCF01F066
:100EF000000E006C011E012211510118E8AE02D053
:100F0000013404D00050105D0150115908E2DECFC9
:100F100010F2DDCF11F2106D111F000E1123DECF84
:100F200000F0DDCF01F001501119E8AE02D011350B
:100F300004D01051005C1151015804E2DECF10F2D0
:100F4000DDCF11F2ACD0AF51800B20E0020149514E
:100F50001DE13A07000E3B5B480E3C6EE10E3D6E14
:100F60007A0E3E6E3F0E3F6E2EC237F02FC238F023
:100F700030C239F031C23AF0CEEC30F037C02EF248
:100F800038C02FF239C030F23AC031F20101AF510E
:100F9000100B20E0020145511DE13A2B000E3B23CE
:100FA000480E3C6EE10E3D6E7A0E3E6E3F0E3F6E79
:100FB0002EC237F02FC238F030C239F031C23AF0C9
:100FC0007BEC30F037C02EF238C02FF239C030F24F
:100FD0003AC031F20101AF51400B06E002014B5122
:100FE00003E11407000E155B0101AF51200B06E071
:100FF00002014A5103E1142B000E15230101AF51E8
:10100000800B01E0010E0201496F0101AF51100B8D
:1010100001E0010E0201456F0101AF51200B01E01B
:10102000010E02014A6F0101AF51400B01E0010EB8
:1010300002014B6FDECF00F0DDCF01F0000E006C3F
:10104000011E012215510118E8AE02D0013404D06E
:101050000050145D0150155908E2DECF14F2DDCFC7
:1010600015F2146D151F000E1523DECF00F0DDCF35
:1010700001F001501519E8AE02D0153504D0145115
:10108000005C1551015804E2DECF14F2DDCF15F2F9
:101090004F6B4FC24EF24FC24DF24FC24CF20A0E8E
:1010A000E15C02E2E16AE552E16EE552E7CFD9FF89
:1010B0001200D9CFE6FFE1CFD9FF040EE12616C218
:1010C0003CF017C23DF018C23EF019C23FF03EC2DC
:1010D00037F03FC238F040C239F041C23AF0CEECAE
:1010E00030F037C000F038C001F039C002F03AC02B
:1010F00003F00C6A0D6A800E0E6E3F0E0F6E3EC23C
:101100003CF03FC23DF040C23EF041C23FF00CC057
:1011100037F00DC038F00EC039F00FC03AF0E4ECF3
:101120002FF037C008F038C009F039C00AF03AC0D3
:101130000BF026C23CF027C23DF028C23EF029C287
:101140003FF008C037F009C038F00AC039F00BC0D2
:101150003AF0CEEC30F037C004F038C005F039C0BA
:1011600006F03AC007F004C03CF005C03DF006C0F0
:101170003EF007C03FF000C037F001C038F002C0B9
:1011800039F003C03AF0E5EC2FF037C0DEFF38C08D
:10119000DEFF39C0DEFF3AC0DDFFDD52DD52D9CFC0
:1011A000E9FFDACFEAFFEECF02F0EECF03F0EECFA9
:1011B00004F0EFCF05F0FD0EDBCF38F0FE0EDBCFF5
:1011C00039F0D1EC2FF037C006F038C007F039C045
:1011D00008F03AC009F006C03CF007C03DF008C076
:1011E0003EF009C03FF002C037F003C038F004C041
:1011F00039F005C03AF0CEEC30F0B5EC31F038C043
:1012000000F039C001F000C0F3FF01C0F4FF040E8C
:10121000E15C03E200D0E16AE552E16EE552E7CF1E
:10122000D9FF1200D9CFE6FFE1CFD9FF040EE126A6
:101230001AC23CF01BC23DF01CC23EF01DC23FF082
:101240003EC237F03FC238F040C239F041C23AF0F6
:10125000CEEC30F037C000F038C001F039C002F0F9
:101260003AC003F00C6A0D6A800E0E6E3F0E0F6ED0
:101270003EC23CF03FC23DF040C23EF041C23FF0B2
:101280000CC037F00DC038F00EC039F00FC03AF086
:10129000E4EC2FF037C008F038C009F039C00AF08C
:1012A0003AC00BF02AC23CF02BC23DF02CC23EF0FB
:1012B0002DC23FF008C037F009C038F00AC039F03D
:1012C0000BC03AF0CEEC30F037C004F038C005F077
:1012D00039C006F03AC007F004C03CF005C03DF04C
:1012E00006C03EF007C03FF000C037F001C038F044
:1012F00002C039F003C03AF0E5EC2FF037C0DEFF52
:1013000038C0DEFF39C0DEFF3AC0DDFFDD52DD52FE
:10131000D9CFE9FFDACFEAFFEECF02F0EECF03F04C
:10132000EECF04F0EFCF05F0FD0EDBCF38F0FE0E70
:10133000DBCF39F0D1EC2FF037C006F038C007F022
:1013400039C008F03AC009F006C03CF007C03DF0D3
:1013500008C03EF009C03FF002C037F003C038F0CB
:1013600004C039F005C03AF0CEEC30F0B5EC31F005
:1013700038C000F039C001F000C0F3FF01C0F4FF35
:10138000040EE15C03E200D0E16AE552E16EE55251
:10139000E7CFD9FF1200D9CFE6FFE1CFD9FF040E86
:1013A000E1261EC23CF01FC23DF020C23EF021C229
:1013B0003FF03EC237F03FC238F040C239F041C280
:1013C0003AF0CEEC30F037C000F038C001F039C050
:1013D00002F03AC003F00C6A0D6A800E0E6E3F0EEA
:1013E0000F6E3EC23CF03FC23DF040C23EF041C2F3
:1013F0003FF00CC037F00DC038F00EC039F00FC010
:101400003AF0E4EC2FF037C008F038C009F039C0EA
:101410000AF03AC00BF02EC23CF02FC23DF030C2B1
:101420003EF031C23FF008C037F009C038F00AC0C2
:1014300039F00BC03AF0CEEC30F037C004F038C0D1
:1014400005F039C006F03AC007F004C03CF005C012
:101450003DF006C03EF007C03FF000C037F001C0CD
:1014600038F002C039F003C03AF0E5EC2FF037C095
:10147000DEFF38C0DEFF39C0DEFF3AC0DDFFDD52DF
:10148000DD52D9CFE9FFDACFEAFFEECF02F0EECF9F
:1014900003F0EECF04F0EFCF05F0FD0EDBCF38F018
:1014A000FE0EDBCF39F0D1EC2FF037C006F038C09C
:1014B00007F039C008F03AC009F006C03CF007C098
:1014C0003DF008C03EF009C03FF002C037F003C055
:1014D00038F004C039F005C03AF0CEEC30F0B5EC8D
:1014E00031F038C000F039C001F000C0F3FF01C096
:1014F000F4FF040EE15C03E200D0E16AE552E16E24
:10150000E552E7CFD9FF1200D9CFE6FFE1CFD9FFEF
:10151000040EE12622C23CF023C23DF024C23EF07C
:1015200025C23FF03EC237F03FC238F040C239F02A
:1015300041C23AF0CEEC30F037C000F038C001F0D4
:1015400039C002F03AC003F00C6A0D6A800E0E6ECC
:101550003F0E0F6E3EC23CF03FC23DF040C23EF037
:1015600041C23FF00CC037F00DC038F00EC039F06A
:101570000FC03AF0E4EC2FF037C008F038C009F0A3
:1015800039C00AF03AC00BF032C23CF033C23DF031
:1015900034C23EF035C23FF008C037F009C038F021
:1015A0000AC039F00BC03AF0CEEC30F037C004F08E
:1015B00038C005F039C006F03AC007F004C03CF06E
:1015C00005C03DF006C03EF007C03FF000C037F058
:1015D00001C038F002C039F003C03AF0E5EC2FF05A
:1015E00037C0DEFF38C0DEFF39C0DEFF3AC0DDFFA6
:1015F000DD52DD52D9CFE9FFDACFEAFFEECF02F0BC
:10160000EECF03F0EECF04F0EFCF05F0FD0EDBCF11
:1016100038F0FE0EDBCF39F0D1EC2FF037C006F0FA
:1016200038C007F039C008F03AC009F006C03CF0F5
:1016300007C03DF008C03EF009C03FF002C037F0DF
:1016400003C038F004C039F005C03AF0CEEC30F0F9
:10165000B5EC31F038C000F039C001F000C0F3FF44
:1016600001C0F4FF040EE15C03E200D0E16AE55240
:10167000E16EE552E7CFD9FF1200D9CFE6FFE1CF07
:10168000D9FF020EE1260101AEBF12D0B551B40858
:1016900004E2B40EDE6EDD680AD04A0EB55D04E2E7
:1016A0004A0EDE6EDD6A03D0B551DE6EDD6A03D010
:1016B000B551DE6EDD6AB8C1E6FFDFCFE6FFB9C126
:1016C000E6FF0DD8E552E552E552020EE15C02E27A
:1016D000E16AE552E16EE552E7CFD9FF1200D9CFBA
:1016E000E6FFE1CFD9FF140EE126FE0EDB50DE6EE1
:1016F000DD6AFD0EDB50E66ED950020FE96EDACFDF
:10170000EAFFE552E750EE6EED6AFC0EDB50E66E46
:10171000D950040FE96EDACFEAFFE552E750EE6EDA
:10172000ED6AD9CFE9FFDACFEAFFFF0EEE1801E14B
:10173000ED5003E1FE0EDE6EDD6AD950020FE96E58
:10174000DACFEAFFFF0EEE1801E1ED5007E1FE0EE1
:10175000F36E020EF3CFDBFF030EDB6AD950040FEA
:10176000E96EDACFEAFFFF0EEE1801E1ED5007E176
:10177000FE0EF36E040EF3CFDBFF050EDB6AD9CF4E
:10178000E9FFDACFEAFF7F0EEE5E000EED5AD95088
:10179000020FE96EDACFEAFF7F0EEE5E000EED5A21
:1017A000D950040FE96EDACFEAFF7F0EEE5E000E2D
:1017B000ED5AD950040FE96EDACFEAFF010ED89046
:1017C000EE36ED36E806FBE1D950040FE96EDACFCC
:1017D000EAFF030E3D6E3E6AEECF38F0EDCF39F0F2
:1017E0003BEC31F038C0EEFF39C0EDFF7F0EE66E06
:1017F000E66A000EE66EE66A020EDBCF12F0030E1A
:10180000DBCF13F0040EDB501224106E050EDB50FC
:101810001320116EDE5010240E6EDD5011200F6E5D
:101820000EC0E6FF0FC0E6FF77EC15F0E552E5527B
:10183000F3CF0CF0F4CF0DF00CC0E6FF0DC0E6FFC7
:10184000A3EC15F0146E060EE15E1450F3CF0AF00F
:10185000F4CF0BF00AC0E6FF0BC0E6FF7F0EE66E8A
:10186000E66A000EE66EE66A020EDBCF1BF0030EA0
:10187000DBCF1CF0040EDB501B24196E050EDB5071
:101880001C201A6EDE50195C176EDD501A58186E47
:1018900017C0E6FF18C0E6FF77EC15F0E552E552F9
:1018A000F3CF15F0F4CF16F015C0E6FF16C0E6FF33
:1018B000A3EC15F01D6E060EE15E1D50E552E7CF5C
:1018C0000BF0E552E7CF0AF00A50F324086E0B50F4
:1018D000F420096E08C0E6FF09C0E6FF7F0EE66E41
:1018E000E66A000EE66EE66A040EDBCF24F0050E13
:1018F000DBCF25F0246C251E000E2522020EDB50C6
:101900002424226E030EDB502520236EDE50225C41
:10191000206EDD502358216E20C0E6FF21C0E6FF77
:1019200077EC15F0E552E552F3CF1EF0F4CF1FF03F
:101930001EC0E6FF1FC0E6FFA3EC15F0266E060EE4
:10194000E15E2650E552E7CF09F0E552E7CF08F017
:101950000850F324066E0950F420076E06C0E6FF17
:1019600007C0E6FF7F0EE66EE66A000EE66EE66AE8
:10197000040EDBCF2DF0050EDBCF2EF02D6C2E1ECE
:10198000000E2E22020EDB502D242B6E030EDB5098
:101990002E202C6EDE502B24296EDD502C202A6E3A
:1019A00029C0E6FF2AC0E6FF77EC15F0E552E552C4
:1019B000F3CF27F0F4CF28F027C0E6FF28C0E6FFDA
:1019C000A3EC15F02F6E060EE15E2F50E552E7CF27
:1019D00007F0E552E7CF06F00650F324046E0750F7
:1019E000F420056E04C038F005C039F0D1EC2FF0BA
:1019F00037C000F038C001F039C002F03AC003F03F
:101A00003C6A3D6AFE0E3E6E430E3F6E00C037F0EC
:101A100001C038F002C039F003C03AF07BEC30F07E
:101A200037C03EF238C03FF239C040F23AC041F20E
:101A300006C23CF007C23DF008C23EF009C23FF0CA
:101A40003EC237F03FC238F040C239F041C23AF0EE
:101A5000E4EC2FF037C000F038C001F039C002F0DC
:101A60003AC003F0086A096A800E0A6E3F0E0B6ED8
:101A700006C23CF007C23DF008C23EF009C23FF08A
:101A800008C037F009C038F00AC039F00BC03AF08E
:101A9000E4EC2FF037C004F038C005F039C006F090
:101AA0003AC007F004C03CF005C03DF006C03EF06F
:101AB00007C03FF000C037F001C038F002C039F075
:101AC00003C03AF07BEC30F037C03EF238C03FF252
:101AD00039C040F23AC041F20AC238F00BC239F0C4
:101AE000D1EC2FF037C004F038C005F039C006F053
:101AF0003AC007F004C03CF005C03DF006C03EF01F
:101B000007C03FF03EC237F03FC238F040C239F064
:101B100041C23AF0CEEC30F037C000F038C001F0EE
:101B200039C002F03AC003F0106A116A800E126EDA
:101B30003F0E136E3EC23CF03FC23DF040C23EF04D
:101B400041C23FF010C037F011C038F012C039F078
:101B500013C03AF0E4EC2FF037C00CF038C00DF0B1
:101B600039C00EF03AC00FF010C238F011C239F08F
:101B7000D1EC2FF037C014F038C015F039C016F092
:101B80003AC017F014C03CF015C03DF016C03EF04E
:101B900017C03FF00CC037F00DC038F00EC039F060
:101BA0000FC03AF0CEEC30F037C008F038C009F082
:101BB00039C00AF03AC00BF008C03CF009C03DF053
:101BC0000AC03EF00BC03FF000C037F001C038F053
:101BD00002C039F003C03AF0E5EC2FF0B5EC31F07B
:101BE0000E0E38C0DBFF0F0E39C0DBFF0CC238F021
:101BF0000DC239F0D1EC2FF037C004F038C005F039
:101C000039C006F03AC007F004C03CF005C03DF012
:101C100006C03EF007C03FF03EC237F03FC238F08A
:101C200040C239F041C23AF0CEEC30F037C000F09B
:101C300038C001F039C002F03AC003F0106A116AEE
:101C4000800E126E3F0E136E3EC23CF03FC23DF05E
:101C500040C23EF041C23FF010C037F011C038F032
:101C600012C039F013C03AF0E4EC2FF037C00CF09A
:101C700038C00DF039C00EF03AC00FF012C238F083
:101C800013C239F0D1EC2FF037C014F038C015F082
:101C900039C016F03AC017F014C03CF015C03DF042
:101CA00016C03EF017C03FF00CC037F00DC038F042
:101CB0000EC039F00FC03AF0CEEC30F037C008F06B
:101CC00038C009F039C00AF03AC00BF008C03CF047
:101CD00009C03DF00AC03EF00BC03FF000C037F035
:101CE00001C038F002C039F003C03AF0E5EC2FF043
:101CF000B5EC31F0100E38C0DBFF110E39C0DBFF40
:101D00000EC238F00FC239F0D1EC2FF037C004F01A
:101D100038C005F039C006F03AC007F004C03CF006
:101D200005C03DF006C03EF007C03FF03EC237F0B0
:101D30003FC238F040C239F041C23AF0CEEC30F048
:101D400037C000F038C001F039C002F03AC003F0EB
:101D5000106A116A800E126E3F0E136E3EC23CF086
:101D60003FC23DF040C23EF041C23FF010C037F0EC
:101D700011C038F012C039F013C03AF0E4EC2FF083
:101D800037C00CF038C00DF039C00EF03AC00FF07B
:101D900014C238F015C239F0D1EC2FF037C014F06E
:101DA00038C015F039C016F03AC017F014C03CF036
:101DB00015C03DF016C03EF017C03FF00CC037F024
:101DC0000DC038F00EC039F00FC03AF0CEEC30F054
:101DD00037C008F038C009F039C00AF03AC00BF03B
:101DE00008C03CF009C03DF00AC03EF00BC03FF017
:101DF00000C037F001C038F002C039F003C03AF03B
:101E0000E5EC2FF0B5EC31F0120E38C0DBFF130E0D
:101E100039C0DBFF0E0EDBCF00F00F0EDBCF01F081
:101E2000D9CFE9FFDACFEAFF0050EE260150ED22CC
:101E3000100EDBCF00F0110EDBCF01F0D950020FF6
:101E4000E96EDACFEAFF0050EE260150ED22120EC5
:101E5000DBCF00F0130EDBCF01F0D950040FE96E99
:101E6000DACFEAFF0050EE260150ED22020EDBCF62
:101E700004F0030EDBCF05F0040EDB500424026EE9
:101E8000050EDB500520036EDE500224006EDD508F
:101E90000320016E060E00C0DBFF070E01C0DBFF52
:101EA000020EDBCF04F0030EDBCF05F0040EDB5097
:101EB0000424026E050EDB500520036EDE50025C2A
:101EC000006EDD500358016E080E00C0DBFF090EE6
:101ED00001C0DBFF040EDBCF04F0050EDBCF05F005
:101EE000046C051E000E0522020EDB500424026E57
:101EF000030EDB500520036EDE50025C006EDD50E9
:101F00000358016E0A0E00C0DBFF0B0E01C0DBFFA1
:101F1000040EDBCF04F0050EDBCF05F0046C051ECC
:101F2000000E0522020EDB500424026E030EDB506D
:101F30000520036EDE500224006EDD500320016E8A
:101F40000C0E00C0DBFF0D0E01C0DBFF060EDBCF69
:101F5000E6FF070EDBCFE6FF59EC08F0E552E5524D
:101F6000F3CF00F0F4CF01F07F0E0026000E012227
:101F700000C0E6FF01C0E6FFA1DAE552E552080E17
:101F8000DBCFE6FF090EDBCFE6FF12EC09F0E552EE
:101F9000E552F3CF00F0F4CF01F07F0E0026000EE3
:101FA000012200C0E6FF01C0E6FF1FDBE552E5525B
:101FB0000A0EDBCFE6FF0B0EDBCFE6FFCBEC09F022
:101FC000E552E552F3CF00F0F4CF01F07F0E00268A
:101FD000000E012200C0E6FF01C0E6FF9DDBE552D6
:101FE000E5520C0EDBCFE6FF0D0EDBCFE6FF84ECF7
:101FF0000AF0E552E552F3CF00F0F4CF01F07F0E86
:102000000026000E012200C0E6FF01C0E6FF1AEC28
:1020100014F0E552E552A8EC14F0140EE15C02E273
:10202000E16AE552E16EE552E7CFD9FF1200D9CF60
:10203000E6FFE1CFD9FF0E0EE126FE0EDB50DE6E8D
:10204000DD6AFD0EDB50E66ED950020FE96EDACF85
:10205000EAFFE552E750EE6EED6AFC0EDB50E66EED
:10206000D950040FE96EDACFEAFFE552E750EE6E81
:10207000ED6AD9CFE9FFDACFEAFFFF0EEE1801E1F2
:10208000ED5003E1FE0EDE6EDD6AD950020FE96EFF
:10209000DACFEAFFFF0EEE1801E1ED5007E1FE0E88
:1020A000F36E020EF3CFDBFF030EDB6AD950040F91
:1020B000E96EDACFEAFFFF0EEE1801E1ED5007E11D
:1020C000FE0EF36E040EF3CFDBFF050EDB6AD9CFF5
:1020D000E9FFDACFEAFF7F0EEE5E000EED5AD9502F
:1020E000020FE96EDACFEAFF7F0EEE5E000EED5AC8
:1020F000D950040FE96EDACFEAFF7F0EEE5E000ED4
:10210000ED5AD950040FE96EDACFEAFF010ED890EC
:10211000EE36ED36E806FBE1D950040FE96EDACF72
:10212000EAFF030E3D6E3E6AEECF38F0EDCF39F098
:102130003BEC31F038C0EEFF39C0EDFF020EDBCFD3
:1021400004F0030EDBCF05F0040EDB500424026E16
:10215000050EDB500520036EDE500224006EDD50BC
:102160000320016E060E00C0DBFF070E01C0DBFF7F
:10217000020EDBCF04F0030EDBCF05F0040EDB50C4
:102180000424026E050EDB500520036EDE50025C57
:10219000006EDD500358016E080E00C0DBFF090E13
:1021A00001C0DBFF040EDBCF04F0050EDBCF05F032
:1021B000046C051E000E0522020EDB500424026E84
:1021C000030EDB500520036EDE50025C006EDD5016
:1021D0000358016E0A0E00C0DBFF0B0E01C0DBFFCF
:1021E000040EDBCF04F0050EDBCF05F0046C051EFA
:1021F000000E0522020EDB500424026E030EDB509B
:102200000520036EDE500224006EDD500320016EB7
:102210000C0E00C0DBFF0D0E01C0DBFF7F0EE76E72
:10222000060EDBCF00F0070EDBCF01F0E7500026F3
:10223000000E012200C0E6FF01C0E6FF3FD9E552D3
:10224000E5527F0EE76E080EDBCF00F0090EDBCF04
:1022500001F0E7500026000E012200C0E6FF01C099
:10226000E6FFC3D9E552E5527F0EE76E0A0EDBCFDB
:1022700000F00B0EDBCF01F0E7500026000E01222C
:1022800000C0E6FF01C0E6FF47DAE552E5527F0EE7
:10229000E76E0C0EDBCF00F00D0EDBCF01F0E75048
:1022A0000026000E012200C0E6FF01C0E6FFC2DAF0
:1022B000E552E5524DDB0E0EE15C02E2E16AE552C9
:1022C000E16EE552E7CFD9FF1200D9CFE6FFE1CFAB
:1022D000D9FF7F0EE66EFD0EDBCFE6FFFE0EDBCFF5
:1022E000E6FF6FEC0BF0E552E552E552E552E7CF21
:1022F000D9FF1200D9CFE6FFE1CFD9FFFE0EDB50A8
:10230000006E016AFF0E001801E1015004E1FE0EAB
:10231000F36EF3CFDBFF7F0EE66EFE0EDB50E66E54
:102320007F0EE66E6FEC0BF0E552E552E552E5529A
:10233000E7CFD9FF1200D9CFE6FFE1CFD9FFFE0EDC
:10234000DB50006E016AFF0E001801E1015004E14C
:10235000FE0EF36EF3CFDBFF7F0EE66EFE0EDB505C
:10236000006E016AFE0ED8800056000E0156005025
:10237000E66E7F0EE66E6FEC0BF0E552E552E5522D
:10238000E552E7CFD9FF1200D9CFE6FFE1CFD9FF61
:10239000FE0EDB50006E016AFF0E001801E10150D5
:1023A00004E1FE0EF36EF3CFDBFF7F0EE66EE66E0A
:1023B000FE0EDB50E66E6FEC0BF0E552E552E55297
:1023C000E552E7CFD9FF1200D9CFE6FFE1CFD9FF21
:1023D000FE0EDB50006E016AFF0E001801E1015095
:1023E00004E1FE0EF36EF3CFDBFF7F0EE66EE66ECA
:1023F000FE0EDB50006E016AFE0ED8800056000E05
:1024000001560050E66E6FEC0BF0E552E552E552D6
:10241000E552E7CFD9FF1200D9CFE6FFE1CFD9FFD0
:10242000FE0EDB50006E016AFF0E001801E1015044
:1024300004E1FE0EF36EF3CFDBFFFE0EDB50E66E23
:102440007F0EE66EE66E6FEC0BF0E552E552E5525C
:10245000E552E7CFD9FF1200D9CFE6FFE1CFD9FF90
:10246000FE0EDB50006E016AFF0E001801E1015004
:1024700004E1FE0EF36EF3CFDBFFFE0EDB50006EC9
:10248000016AFE0ED8800056000E01560050E66E1E
:102490007F0EE66EE66E6FEC0BF0E552E552E5520C
:1024A000E552E7CFD9FF120001017F0E956F95C16C
:1024B00092F195C190F195C191F11200D9CFE6FF4B
:1024C000E1CFD9FF020EE126FD0EDBCFDEFFDBCF31
:1024D000DDFFDECF00F0DDCF01F07F0E0101D880FF
:1024E000FD55000101AE02D0D89003D0005C000E73
:1024F000015806E27F0E0101D880FD55DE6EDD6ACF
:10250000DECF00F0DDCF01F00001800E011402E00B
:10251000DE6ADD6ADECF00F0DDCF01F07F0E010163
:10252000FD25026E036A03500118E8AE02D00134A3
:1025300004D00050025C0150035804E27F0EFD25D8
:10254000DE6EDD6ADECF00F0DDCF01F0013404E2A3
:102550000050FE08000E015403E2FE0EDE6EDD6A3E
:1025600001017F0E906FDECF00F0DDCF01F000C2E1
:1025700002F001C203F0D8800256000E035601504B
:102580000318E8AE02D0033404D00250005C0350BC
:10259000015816E3DECF04F0DDCF05F07F0E020117
:1025A000076A0025066E0151072207500518E8AE9C
:1025B00002D0053404D00450065C055007580BE2E5
:1025C000DECF00F0DDCF01F0FE0ED8800056000E09
:1025D000015600C090F1020EE15C02E2E16AE552B0
:1025E000E16EE552E7CFD9FF1200D9CFE6FFE1CF88
:1025F000D9FF020EE126FD0EDBCFDEFFDBCFDDFFD4
:10260000DECF00F0DDCF01F07F0E0101D880FD5557
:10261000000101AE02D0D89003D0005C000E01583A
:1026200006E27F0E0101D880FD55DE6EDD6ADECF49
:1026300000F0DDCF01F00001800E011402E0DE6A3F
:10264000DD6ADECF00F0DDCF01F07F0E0101FD2558
:10265000026E036A03500118E8AE02D0013404D0C0
:102660000050025C0150035804E27F0EFD25DE6E2F
:10267000DD6ADECF00F0DDCF01F0013404E200506E
:10268000FE08000E015403E2FE0EDE6EDD6A01015B
:102690007F0E956FDECF00F0DDCF01F000C202F0BB
:1026A00001C203F0D8800256000E035601500318F1
:1026B000E8AE02D0033404D00250005C035001584D
:1026C00016E3DECF04F0DDCF05F07F0E0201076ACE
:1026D0000025066E0151072207500518E8AE02D00A
:1026E000053404D00450065C055007580BE2DECFD9
:1026F00000F0DDCF01F0FE0ED8800056000E01562E
:1027000000C095F1020EE15C02E2E16AE552E16E81
:10271000E552E7CFD9FF1200D9CFE6FFE1CFD9FFCD
:10272000020EE126FD0EDBCFDEFFDBCFDDFFDECFCD
:1027300000F0DDCF01F07F0E0101D880FD550001D2
:1027400001AE02D0D89003D0005C000E015806E222
:102750007F0E0101D880FD55DE6EDD6ADECF00F010
:10276000DDCF01F00001800E011402E0DE6ADD6AB7
:10277000DECF00F0DDCF01F07F0E0101FD25026EFE
:10278000036A03500118E8AE02D0013404D00050AF
:10279000025C0150035804E27F0EFD25DE6EDD6A07
:1027A000DECF00F0DDCF01F0013404E20050FE087E
:1027B000000E015403E2FE0EDE6EDD6A01017F0EA3
:1027C000916FDECF00F0DDCF01F000C202F001C258
:1027D00003F0D8800256000E035601500318E8AEED
:1027E00002D0033404D00250005C0350015816E3B9
:1027F000DECF04F0DDCF05F07F0E0201076A002571
:10280000066E0151072207500518E8AE02D00534C4
:1028100004D00450065C0550075802E2DFCF91F166
:10282000020EE15C02E2E16AE552E16EE552E7CFB9
:10283000D9FF1200D9CFE6FFE1CFD9FF020EE12682
:10284000FD0EDBCFDEFFDBCFDDFFDECF00F0DDCF27
:1028500001F07F0E0101D880FD55000101AE02D0CC
:10286000D89003D0005C000E015806E27F0E0101F3
:10287000D880FD55DE6EDD6ADECF00F0DDCF01F0E1
:102880000001800E011402E0DE6ADD6ADECF00F096
:10289000DDCF01F07F0E0101FD25026E036A0350BA
:1028A0000118E8AE02D0013404D00050025C01509F
:1028B000035804E27F0EFD25DE6EDD6ADECF00F0F8
:1028C000DDCF01F0013404E20050FE08000E015497
:1028D00003E2FE0EDE6EDD6A01017F0E926FDECF37
:1028E00000F0DDCF01F000C202F001C203F0D88099
:1028F0000256000E035601500318E8AE02D003340E
:1029000004D00250005C0350015816E3DECF04F0FF
:10291000DDCF05F07F0E0201076A0025066E01512A
:10292000072207500518E8AE02D0053404D0045041
:10293000065C0550075802E2DFCF92F1020EE15C1F
:1029400002E2E16AE552E16EE552E7CFD9FF1200FB
:1029500001019051006E016A7F0E0201036A042595
:10296000026E0551032201500318E8AE02D0033471
:1029700004D00250005C0350015801E3AED00101C5
:102980009051046E056A04C206F005C207F07F0E7E
:10299000D8800656000E075607500518E8AE02D03C
:1029A000053404D00450065C0550075801E395D067
:1029B0009151086E096A7F0E02010B6A04250A6EA6
:1029C00005510B2209500B18E8AE02D00B3404D08D
:1029D0000A50085C0B50095801E37FD00101915166
:1029E0000C6E0D6A04C20EF005C20FF07F0ED88087
:1029F0000E56000E0F560F500D18E8AE02D00D34D3
:102A000004D00C500E5C0D500F5867E29551106EBB
:102A1000116A7F0E0201136A0425126E05511322FA
:102A200011501318E8AE02D0133404D01250105CC9
:102A30001350115852E201019551146E156A04C2E7
:102A400016F005C217F07F0ED8801656000E1756E6
:102A500017501518E8AE02D0153404D01450165C87
:102A6000155017583AE29251186E196A7F0E0201FA
:102A70001B6A04251A6E05511B2219501B18E8AE5B
:102A800002D01B3404D01A50185C1B50195825E290
:102A9000010192511C6E1D6A04C21EF005C21FF096
:102AA0007F0ED8801E56000E1F561F501D18E8AE10
:102AB00002D01D3404D01C501E5C1D501F580DE266
:102AC0007F0E926F92C195F192C191F192C190F1F6
:102AD00002C204F203C205F209D002C204F203C228
:102AE00005F20201020E045F000E055B1200D9CF51
:102AF000E6FFE1CFD9FFFD0EDBCF00F0FE0EDBCF0E
:102B000001F00001800E01140FE0FD0EDBCF00F09C
:102B1000FE0EDBCF01F0006C011E000E012200C092
:102B2000F3FF01C0F4FF0BD0FD0EDBCF00F0FE0E73
:102B3000DBCF01F000C0F3FF01C0F4FF00D0E5528D
:102B4000E7CFD9FF1200D9CFE6FFE1CFD9FFFD0EC5
:102B5000DBCF00F0FE0EDBCF01F0F90EDBCF02F091
:102B6000FA0EDBCF03F003500118E8AE02D00134B7
:102B700004D00050025C015003580BE2F90EDBCF89
:102B800000F0FA0EDBCF01F000C0F3FF01C0F4FF4C
:102B90002DD0FD0EDBCF00F0FE0EDBCF01F0FB0EE3
:102BA000DBCF02F0FC0EDBCF03F001500318E8AEE0
:102BB00002D0033404D00250005C035001580BE2F1
:102BC000FB0EDBCF00F0FC0EDBCF01F000C0F3FF0B
:102BD00001C0F4FF0BD0FD0EDBCF00F0FE0EDBCF0B
:102BE00001F000C0F3FF01C0F4FF00D0E552E7CFD1
:042BF000D9FF1200F7
:0C2BF400D9CFE6FFE1CFD9FFFD0EDBCF0B
:102C0000E9FFFE0EDBCFEAFF040EE926000EEA2202
:102C1000EE6AED6AFD0EDBCFE9FFFE0EDBCFEAFFC9
:102C2000020EE926000EEA22EE6AED6AFD0EDBCF07
:102C3000E9FFFE0EDBCFEAFFEE6AED6AE552E7CF71
:102C4000D9FF1200D9CFE6FFE1CFD9FFFD0EDBCFD0
:102C5000E9FFFE0EDBCFEAFF040EE926000EEA22B2
:102C6000EE50ED1002E0000E01D0010E006E016A80
:102C700000C0F3FF01C0F4FF00D0E552E7CFD9FF59
:102C80001200D9CFE6FFE1CFD9FFFD0EDBCFE9FF80
:102C9000FE0EDBCFEAFF040EE926000EEA22EE501C
:102CA000ED1003E1F36AF46A30D0FD0EDBCFE9FFEB
:102CB000FE0EDBCFEAFF060EE926000EEA22E9CF80
:102CC00002F0EACF03F0FD0EDBCFE9FFFE0EDBCF13
:102CD000EAFF020EE926000EEA22EECF04F0EFCF63
:102CE00005F0050E0502F3CF05F00402F3CF04F062
:102CF000F450052602500424006E03500520016E96
:102D000000C0F3FF01C0F4FF00D0E552E7CFD9FFC8
:102D10001200D9CFE6FFE1CFD9FF020EE126FD0E6A
:102D2000DBCFE6FFFE0EDBCFE6FF5EEC1CF0E552EC
:102D3000E552F3CFDEFFF4CFDDFFDECFE9FFDDCFDD
:102D4000EAFF020EEF6EF90EDBCF02F0FA0EDBCFD8
:102D500003F0FB0EDBCF04F0FC0EDBCF05F0140E0E
:102D60003C6EAE0E3D6E180E3E6E420E3F6E02C0C1
:102D700037F003C038F004C039F005C03AF0CEECAB
:102D800030F0B5EC31F038C000F039C001F0DECFE2
:102D9000E9FFDDCFEAFFEE5200C0EEFF01C0EDFF1C
:102DA000010EF36EF46A020EE15C03E200D0E16A08
:102DB000E552E16EE552E7CFD9FF1200D9CFE6FF29
:102DC000E1CFD9FF020EE126FD0EDBCFE6FFFE0EBE
:102DD000DBCFE6FF5EEC1CF0E552E552F3CFDEFF01
:102DE000F4CFDDFFDECFE9FFDDCFEAFF040EEF6EAB
:102DF000DECFE9FFDDCFEAFFEE52FB0EDBCFEEFFC9
:102E0000FC0EDBCFEDFFF70EDBCF02F0F80EDBCFD1
:102E100003F0F90EDBCF04F0FA0EDBCF05F0140E51
:102E20003C6EAE0E3D6E180E3E6E420E3F6E02C000
:102E300037F003C038F004C039F005C03AF0CEECEA
:102E400030F0B5EC31F038C000F039C001F0DECF21
:102E5000E9FFDDCFEAFFEE52020EE926000EEA227C
:102E600000C0EEFF01C0EDFF010EF36EF46A020E2A
:102E7000E15C03E200D0E16AE552E16EE552E7CFA2
:102E8000D9FF1200D9CFE6FFE1CFD9FF020EE1262C
:102E9000FD0EDBCFE6FFFE0EDBCFE6FF5EEC1CF0A7
:102EA000E552E552F3CFDEFFF4CFDDFFF90EDBCFC5
:102EB00000F0FA0EDBCF01F0FB0EDBCF02F0FC0ED0
:102EC000DBCF03F03C6A3D6A800E3E6EBF0E3F6E64
:102ED00000C037F001C038F002C039F003C03AF04A
:102EE000EDEC31F0010A1EE0F90EDBCF04F0FA0E32
:102EF000DBCF05F0FB0EDBCF06F0FC0EDBCF07F0DF
:102F00003C6A3D6A800E3E6E3F0E3F6E04C037F055
:102F100005C038F006C039F007C03AF0E4EC31F0F3
:102F2000010A03E1F36AF46A78D0DECFE9FFDDCF6E
:102F3000EAFF010EEF6EF50EDBCF02F0F60EDBCFEF
:102F400003F0F70EDBCF04F0F80EDBCF05F0140E24
:102F50003C6EAE0E3D6E180E3E6E420E3F6E02C0CF
:102F600037F003C038F004C039F005C03AF0CEECB9
:102F700030F0B5EC31F038C000F039C001F0DECFF0
:102F8000E9FFDDCFEAFFEE52EE5200C0EEFF01C0D6
:102F9000EDFF006A016AFE0E026E420E036E376A92
:102FA000386AFE0E396E420E3A6EF90EDBCF3CF0F7
:102FB000FA0EDBCF3DF0FB0EDBCF3EF0FC0EDBCF9D
:102FC0003FF0CEEC30F037C004F038C005F039C027
:102FD00006F03AC007F004C03CF005C03DF006C062
:102FE0003EF007C03FF000C037F001C038F002C02B
:102FF00039F003C03AF0E5EC2FF08EEC31F03950A7
:10300000E66EDECFE9FFDDCFEAFFEE52E552E75094
:10301000EF6E010EF36EF46A00D0020EE15C02E284
:10302000E16AE552E16EE552E7CFD9FF1200D9CF50
:10303000E6FFE1CFD9FF020EE126FD0EDBCFE6FF72
:10304000FE0EDBCFE6FF5EEC1CF0E552E552F3CF5F
:10305000DEFFF4CFDDFFF90EDBCF00F0FA0EDBCFA1
:1030600001F0FB0EDBCF02F0FC0EDBCF03F03C6A7D
:103070003D6A800E3E6EBF0E3F6E00C037F001C04D
:1030800038F002C039F003C03AF0EDEC31F0010A3B
:103090005AE0F90EDBCF04F0FA0EDBCF05F0FB0EA1
:1030A000DBCF06F0FC0EDBCF07F03C6A3D6A800EFA
:1030B0003E6E3F0E3F6E04C037F005C038F006C0CC
:1030C00039F007C03AF0E4EC31F0010A3CE0F50ECB
:1030D000DBCF08F0F60EDBCF09F0F70EDBCF0AF0FE
:1030E000F80EDBCF0BF03C6A3D6A800E3E6EBF0EE1
:1030F0003F6E08C037F009C038F00AC039F00BC085
:103100003AF0EDEC31F0010A1EE0F50EDBCF0CF0E9
:10311000F60EDBCF0DF0F70EDBCF0EF0F80EDBCFA7
:103120000FF03C6A3D6A800E3E6E3F0E3F6E0CC053
:1031300037F00DC038F00EC039F00FC03AF0E4ECB3
:1031400031F0010A03E1F36AF46AE3D0F90EDBCF50
:1031500000F0FA0EDBCF01F0FB0EDBCF02F0FC0E2D
:10316000DBCF03F03C6A3D6A800E3E6EBF0E3F6EC1
:1031700000C037F001C038F002C039F003C03AF0A7
:10318000CEEC30F0F90E37C0DBFFFA0E38C0DBFFB3
:10319000FB0E39C0DBFFFC0E3AC0DBFFDECFE9FFE0
:1031A000DDCFEAFFEF6AF10EDBCF02F0F20EDBCFEC
:1031B00003F0F30EDBCF04F0F40EDBCF05F0140EBA
:1031C0003C6EAE0E3D6E180E3E6E420E3F6E02C05D
:1031D00037F003C038F004C039F005C03AF0CEEC47
:1031E00030F0B5EC31F038C000F039C001F0DECF7E
:1031F000E9FFDDCFEAFFEE52020EE926000EEA22D9
:1032000000C0EEFF01C0EDFF006A016AFE0E026E13
:10321000420E036E376A386AFE0E396E420E3A6EFF
:10322000F90EDBCF3CF0FA0EDBCF3DF0FB0EDBCF2F
:103230003EF0FC0EDBCF3FF0CEEC30F037C004F0B8
:1032400038C005F039C006F03AC007F004C03CF0C1
:1032500005C03DF006C03EF007C03FF000C037F0AB
:1032600001C038F002C039F003C03AF0E5EC2FF0AD
:103270008EEC31F03950E66EDECFE9FFDDCFEAFFAC
:10328000EE52E552E750EF6E006A016AFE0E026EE2
:10329000420E036E376A386AFE0E396E420E3A6E7F
:1032A000F50EDBCF3CF0F60EDBCF3DF0F70EDBCFBB
:1032B0003EF0F80EDBCF3FF0CEEC30F037C004F03C
:1032C00038C005F039C006F03AC007F004C03CF041
:1032D00005C03DF006C03EF007C03FF000C037F02B
:1032E00001C038F002C039F003C03AF0E5EC2FF02D
:1032F0008EEC31F03950E66EDECFE9FFDDCFEAFF2C
:10330000EE52EE52E552E750EF6E010EF36EF46AA4
:1033100000D0020EE15C02E2E16AE552E16EE552A4
:10332000E7CFD9FF1200D9CFE6FFE1CFD9FF020ED8
:10333000E126FD0EDBCFE6FFFE0EDBCFE6FFBEDAB9
:10334000E552E552F3CFDEFFF4CFDDFFDECFE9FF3C
:10335000DDCFEAFF030EEF6EDECFE9FFDDCFEAFF40
:10336000EE52FB0EDBCFEEFFFC0EDBCFEDFF010ECE
:10337000F36EF46A020EE15C03E200D0E16AE5520A
:10338000E16EE552E7CFD9FF1200D9CFE6FFE1CFDA
:10339000D9FF040EE126DE6ADD6A6CEC2EF0FD0E2C
:1033A000DBCFE9FFFE0EDBCFEAFF040EE926000EBD
:1033B000EA22EECF00F0EFCF01F0013404E200503A
:1033C0000008000E015403E3F36AF46A6DD2FD0EA7
:1033D000DBCFE6FFFE0EDBCFE6FF53DCE552E55226
:1033E000020EF3CFDBFF030EF4CFDBFF020EDBCFC9
:1033F000E9FF030EDBCFEAFFEF50030A01E10CD136
:10340000070A01E1B3D0060A01E184D0030A48E0CB
:10341000010A01E02BD2020EDBCFE9FF030EDBCF66
:10342000EAFFEE52EE52EF50E66E020EDBCFE9FFFE
:10343000030EDBCFEAFFEE52EF50E66E65EC11F0C3
:10344000E552E552020EDBCFE9FF030EDBCFEAFFC8
:10345000EE52EECF00F0EECF01F0EECF02F0EFCF64
:1034600003F0FD0EDBCFE9FFFE0EDBCFEAFFEECF70
:1034700004F0EDCF05F0EE2A000EEF22000103501C
:103480000518E8AE02D0053404D00450025C0550A3
:10349000035805E2010EDE6EDD6A54EC12F0E6D14F
:1034A000020EDBCFE9FF030EDBCFEAFFEE52EF5057
:1034B000E66E0CEC12F0E552020EDBCFE9FF030ED4
:1034C000DBCFEAFFEE52EECF00F0EECF01F0EECF11
:1034D00002F0EFCF03F0FD0EDBCFE9FFFE0EDBCFF6
:1034E000EAFFEECF04F0EDCF05F0EE2A000EEF225A
:1034F000000102500518E8AE02D0053404D0045093
:10350000015C0550025805E2010EDE6EDD6A54ECE6
:1035100012F0ACD1020EDBCFE9FF030EDBCFEAFFE6
:10352000EE52EECF00F0EECF01F0EECF02F0EFCF93
:1035300003F0FD0EDBCFE9FFFE0EDBCFEAFFEECF9F
:1035400004F0EDCF05F0EE2A000EEF22000101504D
:103550000518E8AE02D0053404D00450005C0550D4
:10356000015803E2010EDE6EDD6A80D1020EDBCF70
:10357000E9FF030EDBCFEAFFEE52EECFE6FFEFCF1F
:10358000E6FFF8EC2CF0E552E552B8EC2FF0F3CF63
:1035900000F0F4CF01F0020EDBCFE9FF030EDBCF2A
:1035A000EAFFEE52EECF02F0EECF03F0EECF04F0E2
:1035B000EFCF05F000010250001802E1035001189E
:1035C00027E0020EDBCFE9FF030EDBCFEAFFEE526E
:1035D000EECF06F0EECF07F0EECF08F0EFCF09F018
:1035E000FD0EDBCFE9FFFE0EDBCFEAFFEECF0AF0E8
:1035F000EDCF0BF0EE2A000EEF2209500B18E8AECB
:1036000002D00B3404D00A50085C0B50095803E276
:10361000010EDE6EDD6A2AD1020EDBCFE9FF030E5A
:10362000DBCFEAFFEE52EECF00F0EECF01F0EECFAF
:1036300002F0EFCF03F000010050010B02E0CDECEF
:1036400034F0020EDBCFE9FF030EDBCFEAFFEE52D0
:10365000EECF00F0EECF01F0EECF02F0EFCF03F0AF
:1036600000010050020B02E00AEC35F0020EDBCF45
:10367000E9FF030EDBCFEAFFEE52EECF00F0EECF14
:1036800001F0EECF02F0EFCF03F000010050040B89
:1036900002E099EC34F0020EDBCFE9FF030EDBCF42
:1036A000EAFFEE52EECF00F0EECF01F0EECF02F0E7
:1036B000EFCF03F000010050080B02E094EC34F06F
:1036C000020EDBCFE9FF030EDBCFEAFFEE52EECFB7
:1036D00000F0EECF01F0EECF02F0EFCF03F00001EB
:1036E0000050100B02E0A3EC34F0020EDBCFE9FF38
:1036F000030EDBCFEAFFEE52EECF00F0EECF01F08B
:10370000EECF02F0EFCF03F000010050200B02E0FB
:103710009BEC34F0020EDBCFE9FF030EDBCFEAFFB8
:10372000EE52EECF00F0EECF01F0EECF02F0EFCF91
:1037300003F000010050400B02E0A7EC34F0020E51
:10374000DBCFE9FF030EDBCFEAFFEE52EECF00F056
:10375000EECF01F0EECF02F0EFCF03F0000100500A
:10376000800B02E09FEC34F0020EDBCFE9FF030E8A
:10377000DBCFEAFFEE52EECF00F0EECF01F0EECF5E
:1037800002F0EFCF03F000010150010B02E0A5ECC5
:1037900034F0020EDBCFE9FF030EDBCFEAFFEE527F
:1037A000EECF00F0EECF01F0EECF02F0EFCF03F05E
:1037B00000010150020B02E09DEC34F0020EDBCF61
:1037C000E9FF030EDBCFEAFFEE52EECF00F0EECFC3
:1037D00001F0EECF02F0EFCF03F000010150040B37
:1037E00002E0A9EC34F0020EDBCFE9FF030EDBCFE1
:1037F000EAFFEE52EECF00F0EECF01F0EECF02F096
:10380000EFCF03F000010150080B02E0A1EC34F00F
:10381000020EDBCFE9FF030EDBCFEAFFEE52EECF65
:1038200000F0EECF01F0EECF02F0EFCF03F0000199
:103830000150100B02E0ABEC34F0020EDBCFE9FFDD
:10384000030EDBCFEAFFEE52EECF00F0EECF01F039
:10385000EECF02F0EFCF03F000010150200B02E0A9
:10386000CBEC34F0010EDE6EDD6A00D0D9CFE9FF7B
:10387000DACFEAFFEE50ED1011E0FD0EDBCFE6FFF0
:10388000FE0EDBCFE6FFA0D8E552E552FD0EDBCF02
:10389000E9FFFE0EDBCFEAFFEE6AED6A6CEC2EF07C
:1038A000010EF36EF46A00D0040EE15C02E2E16AFC
:1038B000E552E16EE552E7CFD9FF1200D9CFE6FF1E
:1038C000E1CFD9FF020EE126FD0EDBCFE9FFFE0EB0
:1038D000DBCFEAFF040EE926000EEA22EECF00F06D
:1038E000EFCF01F0D890015004E60A0E005C000E04
:1038F000015803E3F36AF46A5DD0FD0EDBCFE9FF04
:10390000FE0EDBCFEAFF020EE926000EEA22EECF22
:1039100002F0EFCF03F0FD0EDBCFE9FFFE0EDBCFB1
:10392000EAFF040EE926000EEA220250EE24006EA1
:103930000350EE20016E0A0E3D6E3E6A00C038F064
:1039400001C039F03BEC31F034C000F035C001F07B
:1039500000C0DEFF01C0DDFFFD0EDBCFE9FFFE0E84
:10396000DBCFEAFF040EE926000EEA22EE2AEF2260
:10397000FD0EDBCFE9FFFE0EDBCFEAFF060EE926E8
:10398000000EEA22E9CF02F0EACF03F0050E386E0E
:10399000396ADECF3DF0DDCF3EF061EC31F0025010
:1039A0003624006E03503720016E00C0F3FF01C0C3
:1039B000F4FF00D0020EE15C02E2E16AE552E16E42
:1039C000E552E7CFD9FF1200D9CFE6FFE1CFD9FF0B
:1039D000FD0EDBCFE9FFFE0EDBCFEAFF040EE9268A
:1039E000000EEA22EECF00F0EFCF01F0013404E246
:1039F00000500008000E015401E32FD0FD0EDBCF74
:103A0000E9FFFE0EDBCFEAFF020EE926000EEA22F6
:103A1000EE2AEF22FD0EDBCFE9FFFE0EDBCFEAFF41
:103A2000020EE926000EEA220A0E3D6E3E6AEECF35
:103A300038F0EDCF39F03BEC31F034C0EEFF35C05B
:103A4000EDFFFD0EDBCFE9FFFE0EDBCFEAFF040E3C
:103A5000E926000EEA22EE06EF5AE552E7CFD9FF3B
:023A6000120052
:0E3A62006DEC22F0FB0EDBCFF3FFDB06F35022
:103A700000090AE0BBEC22F0FA0E26EC23F0F3E199
:103A8000011CF1E1010E01D0000E9CEF22F06DEC63
:103A900022F03B0EE12402E3E168E652E16E010E02
:103AA000DB6A020EDB6AF90EDBCFF6FFFA0EDBCF24
:103AB000F7FFFB0EDBCFF8FF0800F550DF6EDF509D
:103AC00002E1C0EF21F0250EDF5C02E0B3EF21F050
:103AD000030EDB6A040EDB6A050EDB6A060EDB6A88
:103AE000070EDB6AD5EC21F02D0EDF5C0CE02B0E0F
:103AF000DF5C09E0200EDF5C06E0230EDF5C03E004
:103B0000300EDF5C1AE1DF50300A14E0130A0FE0D8
:103B1000030A0AE00B0A05E0060AE4E1030EDB8073
:103B2000E1D7030EDB82DED7030EDB84DBD7030E87
:103B3000DB86D8D7030EDB88D5D72A0EDF5C1BE1E6
:103B4000D1EC21F01FEC22F010E0030EDB8038688E
:103B50003968130EDBCF3DF0140EDBCF3EF061EC85
:103B600031F0040E36C0DBFF03D0130E08EC22F058
:103B7000D5EC21F00BD0090EDB6A76EC22F003E0E5
:103B8000EAEC22F0FAD7090E08EC22F0030EDBB0C3
:103B9000DB982E0EDF5C1BE1D5EC21F02A0EDF5CFA
:103BA0000BE1D1EC21F01FEC22F003E1130E5AECF3
:103BB00022F0D5EC21F00BD0090EDB6A76EC22F076
:103BC00003E0EAEC22F0FAD7090E5AEC22F0680E74
:103BD000DF5C07E1D5EC21F0680EDF5C1DE1030E30
:103BE00018D0740EDF5C17E07A0EDF5C14E0480E2C
:103BF000DF5C06E0540EDF5C03E05A0EDF5C02E19E
:103C0000020E07D06C0EDF5C03E06A0EDF5C04E19D
:103C1000010EADEC22F0C9DBDF506E0A01E17FD36B
:103C20001E0A01E192D1200A01E18FD13F0A01E190
:103C300049D11A0A01E146D10D0A01E143D1200A16
:103C400001E140D13A0A01E13DD1200A01E13AD136
:103C5000260A01E135D10D0A01E132D11A0A01E14A
:103C6000D9D0200A4AE0300A1FE0460A0EE0250AB1
:103C700001E083D3D950F90FE96EFF0EDA20EA6E26
:103C8000010EEE5E000EEE5AEE5ABBEC22F0250E4F
:103C9000E66E95DB03E1011C01E169D3B7EC22F08C
:103CA00001E26BD3DB2A69D3080EDB6A040EDB501A
:103CB000010806E2040EDB047FEC22F0DB508BDB14
:103CC000080EDB5009E0030EDB50010B05E172DB4F
:103CD00001E04DD3080EDB6A64DBEFCFDFFF2FEC92
:103CE00023F003E1011C01E142D3B7EC22F001E330
:103CF000DB2A60DB01E141D33AD3070EDB50020837
:103D00000FE1FBEC22F0030EC2EC22F00E0EEECF20
:103D1000DBFF0F0EEECFDBFF100EEECFDBFF20D070
:103D2000F70EDBCF03F0F80EDBCF04F0020E035EDC
:103D3000000E045AF70E03C0DBFFF80E04C0DBFFD1
:103D400003C0E9FF04C0EAFFB2EC22F0026A0E0EE3
:103D500000C0DBFF0F0E01C0DBFF100E02C0DBFF57
:103D60000E0EDBCFE6FF0F0EDBCFE6FF100EDBCF34
:103D7000E6FFFEEC3CF0E552E552E552130E37C08B
:103D8000DBFF140E38C0DBFF060EDB5005E0130E20
:103D9000F6EC22F001E26ADB1AEC23F002E2130EE9
:103DA00037DBDDEC22F006E0040EF6EC22F002E256
:103DB000050E2EDB030EDBB005D0FCDA01E0D7D216
:103DC000080EDB6A090EDB6A0E0EDBCFF6FF0F0E64
:103DD000DBCFF7FF100EDBCFF8FF0800F550DF6EEA
:103DE000DF5014E020EC23F011E22FEC23F003E18C
:103DF000011C01E1BCD2BBDB01E3DB2A090EDB2A9B
:103E0000D9500E0FE96E000ECBDBE7D7D3DA01E114
:103E1000B4D2ADD2C6DA110EEECFDBFF120EEDCF6B
:103E2000DBFF110EDBCFE6FF120EDBCFE6FFF0EC7F
:103E30003CF0E552E552130EF3CFDBFF140EF4CF46
:103E4000DBFF060EDB5004E0130ED0DB01E20EDBDD
:103E50001AEC23F002E2130EDBDAAFDB05E0040E0E
:103E6000C5DB02E2050ED4DA030EDBB005D0A2DA20
:103E700001E07DD2080EDB6A090EDB6A110EDBCF92
:103E8000E9FF120EDBCFEAFFEFCFDFFFDF5014E0D8
:103E9000D7DB12E2E4DB03E1011C01E168D267DB5E
:103EA00001E3DB2A090EDB2A110EDB2ADBCFE9FF57
:103EB000120EE8E3DB2AE6D77DDA01E15ED257D2C3
:103EC000030EDB8E070EDB0410E195DB040E5ADBDC
:103ED0000A0EEECFDBFF0B0EEECFDBFF0C0EEECFAC
:103EE000DBFF0D0EEECFDBFF6CD0070EDB500308BF
:103EF0002CE1030EDBAE0DD0B2DA020E76DAEFCF94
:103F000000F0016A026A036A00AE39D001680268F3
:103F100035D0F70EDBCF01F0F80EDBCF02F0020E4A
:103F2000015E000E025AF70E01C0DBFFF80E02C060
:103F3000DBFF01C0E9FF02C0EAFFEFCF00F00A0E8D
:103F400000C0DBFF0B0EDB6A38D0070EDB50020827
:103F500009E1030EDBAE04D059DB02AE10D00ED067
:103F600055DB0DD0030EDBAE12D079DA020E3DDA4E
:103F7000F9DA026A036A01AE02D002680368E2DA83
:103F80000C0E02C0DBFF0D0E03C0DBFF1AD0F70ED4
:103F9000DBCF02F0F80EDBCF03F0020E025E000E64
:103FA000035AF70E02C0DBFFF80E03C0DBFF02C0AE
:103FB000E9FF03C0EAFFD6DAC5DA0C0EDB6A0D0EA4
:103FC000DB6A060EDB5005E1010EF36E050EF3CF42
:103FD000DBFF150EDB6A160EDB6AD950370F006E59
:103FE000000EDA20016E390E00C0DBFF3A0E01C070
:103FF000DBFF380EDB6A080EDB6A0A0EAEDADF5032
:10400000780A12E0200A10E0280A0CE0200A0AE0F0
:104010003F0A06E00D0A02E0200A08E1020E05D080
:10402000080E03D0080EDF26100E97DA030EDBBE53
:1040300002D0DB92DB94DB50800B24E08ADAD8904C
:10404000030EEB50000A08E6000EEE5C000EEE5880
:10405000000EEE58000EEE5815E213DA3B683C688D
:104060003D683E6884EC3CF00A0E32C0DBFF0B0E6C
:1040700033C0DBFF0C0E34C0DBFF0D0E35C0DBFFA1
:104080002D0E08D0030EDBA202D02B0E03D0DBA432
:1040900008D0200EF36E170EF3CFDBFF150EDB2AD0
:1040A00002D0170EDB6A050EDB5003E1B7D901E140
:1040B00089D0D20E006E7B0E016E000E026E070ECE
:1040C000DBCF03F0046A056A066A03C03BF004C054
:1040D0003CF005C03DF006C03EF0D3D923EC3DF0E6
:1040E00000503224F36E01503320F46E025034201D
:1040F000F86EF4CFF7FFF3CFF6FF0800090EF5CF07
:10410000DBFF580EDF5C0FE1610EF36E090E7BD909
:104110000AE3200E006E090EDBCFE7FF0050E75EDA
:10412000090EE7CFDBFF070EDBCF00F0016A026A62
:10413000036A0FDA00C03BF001C03CF002C03DF062
:1041400003C03EF0EECF36F0EECF37F0EECF38F0D2
:10415000EFCF39F023EC3DF039C0EDFF38C0EDFF73
:1041600037C0EDFF36C0EFFF390EDBCFE9FFDB06CE
:104170003A0EDBCFEAFF01E2DB06090EDBCFEFFFF1
:10418000150EDB2A4BD995E1030EDBA61DD06F0E71
:10419000DF5C06E1C1D918E3150EDB285BDA14D029
:1041A000780EDF5C09E0580EDF5C06E0620EDF5C33
:1041B00003E0420EDF5C08E1020EF36E160EF3CF51
:1041C000DBFF02D0150EDB6A030EDB50100B0EE096
:1041D000040EDBCF00F0050EDB50D880005406E261
:1041E000060EDB5003E1040EDB5034DA95D90AE207
:1041F000050EDBCFE7FF150EDB50E75E050EE7CFC0
:10420000DBFF02D0050EDB6A040EDBCF00F0160EDA
:1042100045D9D880005414E2160EDBCFE6FF150E08
:10422000DBCFE6FF040EDBCFE6FF050EDB50E552E9
:10423000E75CE552D880E754E552D880E7545FD96F
:10424000030EDB50010B0BE1080EDB5008E0B2D887
:1042500001E08DD0080EDB50BED8080EDB6A170EC9
:10426000DB5007E088D9170EF1D903E1011C01E109
:104270007ED0160EDB5016E07ED9300EE66E9FD84B
:1042800002E1011C74E077D9DFCFE6FF42EC3CF09D
:10429000E552E552E552F4CF01F00001F31C02E1D2
:1042A000011C65E0050EDBCF00F0160EDB50D88058
:1042B000005409E2050EDBCFE7FF160EDB50E75E88
:1042C000050EE7CFDBFF300EE66E050ECBD94FE1D2
:1042D000390EDB2ADBCFE9FF3A0E01E3DB2ADBCF25
:1042E000EAFF090EEFCFDBFFDB500EE044D9090EE9
:1042F000ADD902E1011C3BE0390EDB2ADBCFE9FF3F
:104300003A0EEDE3DB2AEBD755D831E1160EDBCFC1
:10431000E6FF080EC3D8E552E7245DD82ED0070E7D
:10432000DB50030A1CE0010A14E0030A07E07BD912
:10433000DBCFEEFF020EDBCFEDFF1FD0F5D8056A15
:1043400003AE02D0046805682CD8BCD805C0EEFFC7
:1043500014D0EAD803BE046824D8B4D80ED063D9E8
:10436000DBCFEFFF0AD07BD905E1011C03E1F36845
:10437000F46810D0FCD801E3DB2A79D95CEF1DF09A
:10438000010EDBCF00F0020EDBCF01F000C0F3FF27
:1043900001C0F4FF3B0EE15C02E2E16AE552E16E2E
:1043A000CBD029D9020EC2EF22F061D90800F55016
:1043B000DF6E1200200EE66E080E32EF23F042ECA4
:1043C0003CF0E552E552E552F3CF00F0F4CF01F0B6
:1043D0000001F31C1200006E016AD950010F4DD983
:1043E0000050EE260150ED221200045E000E055A28
:1043F000F70E04C0DBFFF80E05C0DBFF04C0E9FFC9
:1044000005C0EAFF1200DBCFF4FFF350F45C1200AA
:10441000DB50E76E040EE7CFDBFF12000A0EDBCFA6
:1044200000F00B0EDBCF01F00C0EDBCF02F00D0E17
:10443000DBCF03F000500110021003101200130E26
:10444000EECFDBFF140EEDCFDBFF130EDBCF00F062
:10445000140EDBCF01F00001800E01141200F70EE4
:10446000DBCF04F0F80EDBCF05F01200050EDB50B9
:10447000E66ED950130F01D9E552E750EE6EED6AA2
:1044800012000A0EDBCF36F00B0EDBCF37F00C0E2E
:10449000DBCF38F00D0EDBCF39F01200DBCFE6FFBB
:1044A000150EDBCFE6FF050EDB50E552E724E552A3
:1044B000E7241200DB50CED8010EF36E060EF3CFC8
:1044C000DBFF1200EE50EFCFEAFFE96E02C0EEFF15
:1044D00003C0EEFF04C0EEFF1200D9CFE6FFDACF33
:1044E000E6FFE1CFD9FFE2CFDAFF1200DFCFE6FF30
:1044F000E66ABEEC3DF0E552E552F3501200E76E7D
:10450000080EE7CFDBFF1200EECF00F0EECF01F098
:10451000EFCF02F0036A1200050EDBCF00F0150E9C
:10452000DB50D88000541200010EDBCF02F0020EE7
:10453000DBCF03F0046A1200E552E5CFDAFFE7CFE4
:10454000D9FF12000A0E00C0DBFF0B0E01C0DBFF1B
:104550001200D9500A0F3DEF23F0F36E070EF3CF90
:10456000DBFF1200EECF00F0EFCF01F01200010EE2
:10457000DB2A020E1200FC0EDBCFE6FFFD0EDBCFC6
:10458000E6FF1200005E000E015AF70E00C0DBFFCE
:10459000F80E01C0DBFF00C0E9FF01C0EAFF120016
:1045A000DA20EA6EEF2AEECFF6FF000EEF22EECF12
:1045B000F7FFEF22EECFF8FF1200040EDBCFE6FF8D
:1045C000130EDB50E552E75C9ADFDB5004DF060E8A
:1045D000DB501200090EDB500A0DF350DF24D00F20
:1045E000E76E090EE7CFDBFFD5EF21F0DB50F36E6E
:1045F000050E03EF22F0F70EDBCF00F0F80EDBCF55
:1046000001F01200DFCFE6FFDFEF21F028DF030E1D
:10461000ECDE84EF22F031EC1DF0E552E552E5527C
:10462000E55200091200BDDEEE50EFCFEAFFE96E61
:10463000010E1200130EDB50F36E040E03EF22F096
:10464000040EDB50F36E090E03EF22F0DBCFE6FF22
:10465000DFEF21F0E76E050EE7CFDBFF12008BDF07
:1046600002EF23F0DBCFE6FF86DF0BEF23F0D9501C
:10467000F90FE96EFF0ED0EF22F0E96E000EDA209E
:04468000EA6E1200CC
:0C468400B90EE66EE66A090EE66EE66A04
:104690000101B251E66EE66A2AEC34F0026E060EB3
:1046A000E15E0250F3CF00F0F4CF01F000500110B2
:1046B00007E00101DB51DC1103E1010ED16FD26B88
:1046C0000101D151D21105E06CDAF3CFD1F1F4CF71
:1046D000D2F11200D30EE66EE66A090EE66EE66AC5
:1046E0000101B251E66EE66A2AEC34F0026E060E63
:1046F000E15E0250F3CF00F0F4CF01F00050011062
:1047000007E00101DB51DC1103E1010ED36FD46B33
:104710000101D351D41105E0BEDAF3CFD3F1F4CFC8
:10472000D4F11200FE0EE66EE66A090EE66EE66A47
:104730000101B251E66EE66A2AEC34F0026E060E12
:10474000E15E0250F3CF00F0F4CF01F00050011011
:1047500004E10101AE51200B07E00101DB51DC1146
:1047600003E1010ECD6FCE6B01018C8B0101CD51A8
:10477000CE1107E001018C9B27DBF3CFCDF1F4CF05
:10478000CEF11200A50EE66EE66A090EE66EE66A46
:104790000101B251E66EE66A2AEC34F0026E060EB2
:1047A000E15E0250F3CF00F0F4CF01F000500110B1
:1047B00004E10101AF51200B07E00101DB51DC11E5
:1047C00003E1010ECF6FD06B01018C8D0101CF5140
:1047D000D01107E001018C9DD6DBF3CFCFF1F4CFF0
:1047E000D0F112000101AE51010B07E00101DB51D4
:1047F000DC1103E1010ED56FD66B0101D551D61145
:1048000006E0A2EC28F0F3CFD5F1F4CFD6F11200F8
:10481000950EE66EE66A090EE66EE66A0101B25191
:10482000E66EE66A2AEC34F0026E060EE15E025095
:10483000F3CF00F0F4CF01F00050011007E00101C8
:10484000DB51DC1103E1010ED76FD86B01018C8FB6
:104850000101D751D81107E001018C9F0CD8F3CF8B
:10486000D7F1F4CFD8F112000DDF34DF5BDF8ADF40
:10487000B9DF08EF24F00101DD51DE110DE08A0EF1
:10488000E66E020EE66EFAEC15F0E552E552010115
:10489000DF6BE06BDD6BDE6B050EDF1901E1E051D4
:1048A00001E177D0040EDF1901E1E0513DE0030E94
:1048B000DF1901E1E0512EE0020EDF1901E1E051C4
:1048C0001FE0010EDF1901E1E05110E0DF5101E1CD
:1048D000E05101E074D0ABEC34F09DEC34F0A1EC8D
:1048E00034F0A5EC34F0A9EC34F069D08150080B19
:1048F00003E08150040B03E1020EDF6FE06B5FD039
:104900008850020B03E08750080B03E1030EDF6FB2
:10491000E06B55D08150080B03E08150040B03E19C
:10492000040EDF6FE06B4BD08850020B03E0875022
:10493000080B2FE1E66A200EE66E8A0EE66E020E86
:10494000E66E93EC19F0E552E552E552E5529A0E07
:10495000E66E990EE66EE66E3E0EE66E8A0EE66E28
:10496000020EE66E89EC16F0006E060EE15E005057
:10497000F00EE66EE66A8A0EE66E020EE66E93ECC6
:1049800019F0E552E552E552E552050E0101DF6FDF
:10499000E06B8A0EE66E020EE66E22EC16F0E55231
:1049A000E552F3CF00F0F4CF01F00050011006E023
:1049B0000101DD6BDE6BF36AF46A0DD000D08A0E64
:1049C000E66E020EE66EC5EC19F0E552E552010EF8
:1049D000F36EF46A00D012000101E151E21101E12D
:1049E000A6D08A0EE66E020EE66EFAEC15F0E552DF
:1049F000E552080EE66EE66A8A0EE66E020EE66E76
:104A000093EC19F0E552E552E552E552E66AE66AA2
:104A1000C00EE66E400EE66E030EE66EE66A8A0E85
:104A2000E66E020EE66EDEEC16F0006E080EE15E3B
:104A30000050080EE66EE66A8A0EE66E020EE66E1C
:104A400093EC19F0E552E552E552E552010EE66E9F
:104A50000A0EE66E8A0EE66E020EE66E93EC19F012
:104A6000E552E552E552E552330EE66EE66E130E60
:104A7000E66E400EE66E8A0EE66E020EE66E89EC7B
:104A800016F0006E060EE15E0050040EE66EE66A59
:104A90008A0EE66E020EE66E93EC19F0E552E552D0
:104AA000E552E552E66AE66A400EE66EE66E8A0E6A
:104AB000E66E020EE66E89EC16F0006E060EE15E02
:104AC0000050020EE66EE66A8A0EE66E020EE66E92
:104AD00093EC19F0E552E552E552E552E66AE66AD2
:104AE000800EE66E400EE66E8A0EE66E020EE66EF2
:104AF00089EC16F0006E060EE15E0050E66AE66A8A
:104B0000C00EE66E400EE66E020EE66EE66A8A0E95
:104B1000E66E020EE66EDEEC16F0006E080EE15E4A
:104B200000500101E16BE26B010EDB6FDC6B8A0E62
:104B3000E66E020EE66E22EC16F0E552E552F3CF79
:104B400000F0F4CF01F00050011004E10101AE517A
:104B5000040B1AE0010E0101E16FE26BDB6BDC6B11
:104B60000101AEA50ED0B8EC2FF0F3CF00F0F4CFDA
:104B700001F000C0E6FF01C0E6FFF8EC2CF0E552C2
:104B8000E552F36AF46A0CD08A0EE66E020EE66E07
:104B9000C5EC19F0E552E552010EF36EF46A00D04F
:104BA00012000101E351E4113CE08A0EE66E020EB0
:104BB000E66EFAEC15F0E552E552500EE66E2A0E5E
:104BC000E66E8A0EE66E020EE66E93EC19F0E55282
:104BD000E552E552E552E66AE66AC00EE66E400E20
:104BE000E66E030EE66EE66A8A0EE66E020EE66E6C
:104BF000DEEC16F0006E080EE15E0050010EE66E6F
:104C0000E66A8A0EE66E020EE66E93EC19F0E55245
:104C1000E552E552E5520101E36BE46B010EDB6FF7
:104C2000DC6B8A0EE66E020EE66E22EC16F0E552A2
:104C3000E552F3CF00F0F4CF01F00050011004E191
:104C40000101AE51040B1AE0010E0101E36FE46BA8
:104C5000DB6BDC6B0101AEA50ED0B8EC2FF0F3CF0F
:104C600000F0F4CF01F000C0E6FF01C0E6FFF8EC71
:104C70002CF0E552E552F36AF46A0CD08A0EE66E27
:104C8000020EE66EC5EC19F0E552E552010EF36E28
:104C9000F46A00D012000101E551E6115BE08A0ED2
:104CA000E66E020EE66EFAEC15F0E552E552F80EED
:104CB000E66EE66A8A0EE66E020EE66E93EC19F078
:104CC000E552E552E552E552E66AE66AC00EE66E46
:104CD0003F0EE66E8A0EE66E020EE66E89EC16F068
:104CE000006E060EE15E0050020EE66EE66A8A0E67
:104CF000E66E020EE66E93EC19F0E552E552E552CF
:104D0000E552E66AE66A800EE66E3F0EE66E8A0EB1
:104D1000E66E020EE66E89EC16F0006E060EE15E9F
:104D20000050E66AE66A800EE66E400EE66E010E00
:104D3000E66EE66A8A0EE66E020EE66EDEEC16F0AF
:104D4000006E080EE15E00500101E56BE66B010E9E
:104D5000DB6FDC6B8A0EE66E020EE66E22EC16F05E
:104D6000E552E552F3CF00F0F4CF01F0005001100E
:104D700004E10101AE51040B1AE00101DB6BDC6BB5
:104D8000010EE56FE66B0101AEA50ED0B8EC2FF079
:104D9000F3CF00F0F4CF01F000C0E6FF01C0E6FF62
:104DA000F8EC2CF0E552E552F36AF46A0CD08A0E66
:104DB000E66E020EE66EC5EC19F0E552E552010E04
:104DC000F36EF46A00D012000101E751E8112EE001
:104DD0008DB403D0F36AF46AD5D08A0EE66E020E63
:104DE000E66EFAEC15F0E552E552010E0101D96FBD
:104DF000DA6B0101370EFE6F0101E96BE66A0A0EFC
:104E0000E66E8A0EE66E020EE66E93EC19F0E5523F
:104E1000E552E552E5520101E76BE86B000EEA6FDF
:104E2000EB6BEC6FED6B010EDB6FDC6B81B403D0D1
:104E3000010EEA6FEB6B81B603D0010EEC6FED6BE8
:104E4000EC51ED1162E0EA51EB115FE0E9515DE1F7
:104E5000A9EC34F0A5EC34F00101D96BDA6BE66A09
:104E6000E66A800EE66E3E0EE66ECD0EE66ECC0E67
:104E7000E66E4C0EE66EBE0EE66EE66AE66AE66A20
:104E8000E66A8A0EE66E020EE66E17EC18F0006E09
:104E90000E0EE15E0050E66AE66A800EE66E3F0E98
:104EA000E66EE66AE66A800EE66EBE0EE66EE66ABC
:104EB000E66AE66AE66A8A0EE66E020EE66E17ECAF
:104EC00018F0006E0E0EE15E0050CD0EE66ECC0EB8
:104ED000E66EE66E3D0EE66ECD0EE66ECC0EE66E2E
:104EE0004C0EE66E3E0EE66EE66AE66AE66AE66A34
:104EF0008A0EE66E020EE66E17EC18F0006E0E0ECD
:104F0000E15E00500101010EE96FEC51ED1120E06E
:104F1000EA51EB111DE08A0EE66E020EE66E22ECFF
:104F200016F0E552E552F3CF00F0F4CF01F0005057
:104F300001100EE001017F0EFD6F010E0101E76F10
:104F4000E86BD96BDA6BDB6BDC6BF36AF46A1AD053
:104F50000101AEA50BD0010E0101E76FE86BD96B23
:104F6000DA6BDB6BDC6BF36AF46A0CD08A0EE66EEC
:104F7000020EE66EC5EC19F0E552E552010EF36E35
:104F8000F46A00D012000101EE51EF112EE08DB451
:104F900003D0F36AF46AD5D08A0EE66E020EE66E8E
:104FA000FAEC15F0E552E552010E0101D96FDA6B0A
:104FB0000101280EFE6F0101F06BE66A0A0EE66E33
:104FC0008A0EE66E020EE66E93EC19F0E552E5529B
:104FD000E552E5520101EE6BEF6B000EF36FF46BDF
:104FE000F16FF26B010EDB6FDC6B81B403D0010E4D
:104FF000F16FF26B81B603D0010EF36FF46BF151D8
:10500000F21165E0F351F41162E0F05160E1CBEC94
:1050100034F0A9EC34F0A5EC34F00101D96BDA6B73
:10502000E66AE66A800EE66E3E0EE66ECD0EE66E2F
:10503000CC0EE66E4C0EE66EBE0EE66EE66AE66AD4
:10504000E66AE66A8A0EE66E020EE66E17EC18F065
:10505000006E0E0EE15E0050660EE66EE66EE60E27
:10506000E66E3E0EE66EE66AE66A800EE66EBE0EFE
:10507000E66EE66AE66AE66AE66A8A0EE66E020EA0
:10508000E66E17EC18F0006E0E0EE15E0050CD0ECD
:10509000E66ECC0EE66EE66E3D0EE66ECD0EE66E6C
:1050A000CC0EE66E4C0EE66E3E0EE66EE66AE66AE4
:1050B000E66AE66A8A0EE66E020EE66E17EC18F0F5
:1050C000006E0E0EE15E00500101010EF06FF15115
:1050D000F2111DE0F351F4111AE08A0EE66E020E91
:1050E000E66E22EC16F0E552E552F3CF00F0F4CF75
:1050F00001F0005001100BE0010E0101EE6FEF6BAB
:10510000D96BDA6BDB6BDC6BF36AF46A1AD00101E2
:10511000AEA50BD0010E0101EE6FEF6BD96BDA6B10
:10512000DB6BDC6BF36AF46A0CD08A0EE66E020E5F
:10513000E66EC5EC19F0E552E552010EF36EF46A25
:1051400000D012000101F551F6114AE08A0EE66E18
:10515000020EE66EFAEC15F0E552E552040EE66E2C
:10516000E66A8A0EE66E020EE66E93EC19F0E552E0
:10517000E552E552E552E66AE66AC00EE66E400E7A
:10518000E66E020EE66EE66A8A0EE66E020EE66EC7
:10519000DEEC16F0006E080EE15E0050E66AE66A8C
:1051A000E66A3F0EE66E8A0EE66E020EE66E89EC49
:1051B00016F0006E060EE15E0050010EE66EE66A25
:1051C0008A0EE66E020EE66E93EC19F0E552E55299
:1051D000E552E5520101F56BF66B010EDB6FDC6BFE
:1051E0008A0EE66E020EE66E22EC16F0E552E552ED
:1051F000F3CF00F0F4CF01F00050011004E1010101
:10520000AE51040B1DE0010E0101F56FF66B0001BC
:10521000FF6F0101DB6BDC6B0101AEA50ED0B8ECBA
:105220002FF0F3CF00F0F4CF01F000C0E6FF01C093
:10523000E6FFF8EC2CF0E552E552F36AF46A0CD084
:105240008A0EE66E020EE66EC5EC19F0E552E552E6
:0A525000010EF36EF46A00D01200A4
:06525A00D9CFE6FFE1CF11
:10526000D9FFE65237D80101CC97CC99900E846FC4
:10527000010E856FDF6A100EDF5C0AE2DF50EA6A1A
:105280008425E96E8551EA227F0EEF6EDF2AF3D77F
:10529000A96B010EAA6FC20EAB6FCC85AE6BAF6B64
:1052A0008C6B8E6B8F6B8C0EE66E010EE66E86D865
:1052B000E552E5520101CC938C0EE66E010EE66ECE
:1052C0007DD8E552E5520101CC93E552E552E7CF96
:1052D000D9FF1200806A816A826A836A846A856A59
:1052E000866A876A886A896A8A6A8B6A8C6A8D6A22
:1052F0008E6A8F6A906A916A2F0E926E93689C0EE6
:10530000946E956A966A9768040E986E99680E0E68
:105310009A6EB0989C8EF26AF16AF06A9E6AA16AEF
:10532000A46A080E9D6EA06AA36A9F6EA26AA56A0F
:10533000050EC66EC68AD08EF288F28CF28E1200EE
:1053400082828088949292981200D9CFE6FFE1CFB2
:10535000D9FFE6520101CCA12CD0CCA905D0400E3A
:10536000806F010E816F04D0600E806F010E816F1F
:10537000FD0EDBCF82F1FE0EDBCF83F1DF6A200E64
:10538000DF5C14E2DF50EA6A8025E96E8151EA228F
:10539000EF50E66E82C1E9FF83C1EAFF822B000E67
:1053A0008323E552E750EF6EDF2AE9D79D96CC9133
:1053B0009D86E552E552E7CFD9FF1200D9CFE6FF2F
:1053C000E1CFD9FFE6520101CCB350D0FD0EDBCFC7
:1053D000E9FFFE0EDBCFEAFF1E0EE926000EEA22F1
:1053E000EF50020809E1FD0EDBCFE6FFFE0EDBCF3A
:1053F000E6FF46D8E552E552FD0EDBCFE9FFFE0E93
:10540000DBCFEAFF150EE926000EEA22EF9E01012E
:10541000CCA705D0200E806F010E816F04D0000E46
:10542000806F010E816FFD0EDBCF84F1FE0EDBCFAE
:1054300085F1DF6A200EDF5C14E284C1E9FF85C1DB
:10544000EAFF842B000E8523EF50E66EDF50EA6AF8
:105450008025E96E8151EA22E552E750EF6EDF2A9E
:10546000E9D79D96CC77CC839D86A92BE552E55252
:10547000E7CFD9FF12009D960101CC919D861200C5
:10548000D9CFE6FFE1CFD9FFFD0EDBCFE9FFFE0E5E
:10549000DBCFEAFF1C0EE926000EEA22EF6AFD0EC2
:1054A000DBCFE9FFFE0EDBCFEAFF170EE926000E89
:1054B000EA22EF6AC6AE0ED0C69EFD0EDBCFE9FF34
:1054C000FE0EDBCFEAFF170EE926000EEA22010EE0
:1054D000EF6E22D0F150800B10E0F250080B0DE07F
:1054E000FD0EDBCFE9FFFE0EDBCFEAFF170EE9264C
:1054F000000EEA22020EEF6E0FD0F0A60DD0909EA5
:10550000FD0EDBCFE9FFFE0EDBCFEAFF170EE9262B
:10551000000EEA22030EEF6E250EC614250819E0D0
:10552000FD0EDBCFE9FFFE0EDBCFEAFF1C0EE92606
:10553000000EEA22010EEF6EFD0EDBCFE9FFFE0E3C
:10554000DBCFEAFF170EE926000EEA22C6CFEFFFF7
:1055500080D1C55019E0FD0EDBCFE9FFFE0EDBCF99
:10556000EAFF1C0EE926000EEA22020EEF6EFD0E87
:10557000DBCFE9FFFE0EDBCFEAFF170EE926000EB8
:10558000EA22C5CFEFFF65D1D0BE19D0FD0EDBCF2B
:10559000E9FFFE0EDBCFEAFF1C0EE926000EEA2231
:1055A000030EEF6EFD0EDBCFE9FFFE0EDBCFEAFF51
:1055B000170EE926000EEA22D0CFEFFF4AD19DB6A2
:1055C00019D0FD0EDBCFE9FFFE0EDBCFEAFF1C0E8C
:1055D000E926000EEA22040EEF6EFD0EDBCFE9FF96
:1055E000FE0EDBCFEAFF170EE926000EEA229DCF62
:1055F000EFFF2FD19C5019E0FD0EDBCFE9FFFE0E2F
:10560000DBCFEAFF1C0EE926000EEA22050EEF6E44
:10561000FD0EDBCFE9FFFE0EDBCFEAFF170EE9261A
:10562000000EEA229CCFEFFF14D1080E9F5C19E018
:10563000FD0EDBCFE9FFFE0EDBCFEAFF1C0EE926F5
:10564000000EEA22060EEF6EFD0EDBCFE9FFFE0E26
:10565000DBCFEAFF170EE926000EEA229FCFEFFF0D
:10566000F8D0A25019E0FD0EDBCFE9FFFE0EDBCF34
:10567000EAFF1C0EE926000EEA22070EEF6EFD0E71
:10568000DBCFE9FFFE0EDBCFEAFF170EE926000EA7
:10569000EA22A2CFEFFFDDD0A55019E0FD0EDBCF4F
:1056A000E9FFFE0EDBCFEAFF1C0EE926000EEA2220
:1056B000080EEF6EFD0EDBCFE9FFFE0EDBCFEAFF3B
:1056C000170EE926000EEA22A5CFEFFFC2D0100E7A
:1056D000F214100819E0FD0EDBCFE9FFFE0EDBCF60
:1056E000EAFF1C0EE926000EEA22090EEF6EFD0EFF
:1056F000DBCFE9FFFE0EDBCFEAFF170EE926000E37
:10570000EA22F2CFEFFFA5D0470EF11419E0FD0E0B
:10571000DBCFE9FFFE0EDBCFEAFF1C0EE926000E11
:10572000EA220A0EEF6EFD0EDBCFE9FFFE0EDBCFA5
:10573000EAFF170EE926000EEA22F1CFEFFF89D02B
:10574000C00EF01419E0FD0EDBCFE9FFFE0EDBCF3B
:10575000EAFF1C0EE926000EEA220B0EEF6EFD0E8C
:10576000DBCFE9FFFE0EDBCFEAFF170EE926000EC6
:10577000EA22F0CFEFFF6DD092A819D0FD0EDBCF5B
:10578000E9FFFE0EDBCFEAFF1C0EE926000EEA223F
:105790000C0EEF6EFD0EDBCFE9FFFE0EDBCFEAFF56
:1057A000170EE926000EEA2292CFEFFF52D093B0F7
:1057B00019D0FD0EDBCFE9FFFE0EDBCFEAFF1C0E9A
:1057C000E926000EEA220D0EEF6EFD0EDBCFE9FF9B
:1057D000FE0EDBCFEAFF170EE926000EEA2293CF7A
:1057E000EFFF37D03E0E94141C0819E0FD0EDBCFFE
:1057F000E9FFFE0EDBCFEAFF1C0EE926000EEA22CF
:105800000E0EEF6EFD0EDBCFE9FFFE0EDBCFEAFFE3
:10581000170EE926000EEA2294CFEFFF1AD097BEAA
:1058200018D0FD0EDBCFE9FFFE0EDBCFEAFF1C0E2A
:10583000E926000EEA220F0EEF6EFD0EDBCFE9FF28
:10584000FE0EDBCFEAFF170EE926000EEA2297CF05
:10585000EFFFE552E7CFD9FF1200D8CFE4FFE0CF4A
:10586000E4FFE46EDACFE4FFE2CFDAFFE9CFE4FF52
:10587000EACFE4FFE6529EA624D09E96C9CF8BF1D4
:1058800001018A5100081BE288C1E9FF89C1EAFFD2
:10589000882B000E89238BC1EFFF86C1E9FF87C1EA
:1058A000EAFF862B8723EFCF8BF18BC1C9FF8A07D5
:1058B0008A5104E1020EAA6FCC93CC8101D0C96A4F
:1058C00029D0F2A227D0F2920101200E8A6FCCA932
:1058D00005D0600E886F010E896F04D0400E886F6E
:1058E000010E896FCCA1CC79CCA705D0000E866FB4
:1058F000010E876F04D0200E866F010E876FC9CF0F
:105900008BF186C1E9FF87C1EAFF862B000E872352
:10591000EF50C96EE552E5CFEAFFE5CFE9FFE5CFED
:0E592000DAFFE550E5CFE0FFE5CFD8FF10003D
:02592E00D9CFCF
:10593000E6FFE1CFD9FFFD0EDBCF38F0FE0EDBCF67
:1059400039F0060E381801E1395046E0050E3818D6
:1059500001E1395039E0040E381801E139502BE0EB
:10596000030E381801E139501DE0020E381801E12C
:1059700039500FE0010E381801E1395001E034D000
:105980008C9201017F0E946F010E0201C26FC36BF6
:105990002BD08C9201017F0E946F020E0201C26F18
:1059A000C36B22D08C9201017F0E946F030E020113
:1059B000C26FC36B19D08C9201017F0E946F040EDD
:1059C0000201C26FC36B10D08C82C6C294F1050E67
:1059D0000201C26FC36B08D08C82C8C294F1060E5C
:1059E0000201C26FC36B00D0E552E7CFD9FF1200AE
:1059F000D9CFE6FFE1CFD9FF12EC35F0F3CF00F0BD
:105A0000F4CF01F0010E001801E1015001E160D175
:105A1000FD0EDBCF38F0FE0EDBCF39F0060E381866
:105A200001E1395001E125D1050E381801E1395065
:105A300001E1F0D0040E381801E1395001E1BBD08A
:105A4000020E381801E1395069E0030E381801E1FF
:105A5000395035E0010E381801E1395001E038D1F4
:105A6000010E0001F96FFA6BFB6FFC6B050E020172
:105A7000C21901E1C3511BE0040EC21901E1C35177
:105A800016E0020EC21901E1C35111E0030EC21962
:105A900001E1C3510CE0010EC21901E1C35106E05E
:105AA000060EC21901E1C35101E008D007D0060E6D
:105AB000E66EE66A3CDFE552E55200D009D1030EFE
:105AC0000001FB6FFC6BF96FFA6B050E0201C21946
:105AD00001E1C35121E0030EC21901E1C3511CE0F1
:105AE000040EC21901E1C35110E0010EC21901E117
:105AF000C3510BE0060EC21901E1C35106E0020ECC
:105B0000C21901E1C35101E008D0050EE66EE66A54
:105B10000EDFE552E55201D000D0DAD0020E0001CE
:105B2000FB6FFC6BF96FFA6B050E0201C21901E104
:105B3000C35129E0060EC21901E1C35124E0040E4D
:105B4000C21901E1C3511FE0020EC21901E1C351A4
:105B500019E0030EC21901E1C3510DE0010EC21993
:105B600001E1C35101E026D0050EE66EE66ADFDEF4
:105B7000E552E5521FD0060EE66EE66AD8DEE55223
:105B8000E55218D017D0010EC41901E1C55107E143
:105B9000060EE66EE66ACBDEE552E5520AD0C41D7B
:105BA00001E1C51D06E1050EE66EE66AC0DEE552BE
:105BB000E55200D08DD00001FB6BFC6B040EF96F39
:105BC000FA6B010E0201C21901E1C35121E0020E7C
:105BD000C21901E1C3511CE0030EC21901E1C35116
:105BE00017E0040EC21901E1C35112E0050EC219FB
:105BF00001E1C35106E0060EC21901E1C35101E003
:105C000008D0040EE66EE66A92DEE552E55201D057
:105C100000D05ED0050E0001F96FFA6BFB6BFC6BD8
:105C2000030E0201C21901E1C35121E0050EC219A0
:105C300001E1C3511CE0040EC21901E1C35110E09F
:105C4000060EC21901E1C3510BE0010EC21901E1B8
:105C5000C35106E0020EC21901E1C35101E008D0B0
:105C6000050EE66EE66A63DEE552E55201D000D02D
:105C70002FD0060E0001F96FFA6BFB6BFC6B010E67
:105C80000201C21901E1C35121E0060EC21901E16E
:105C9000C3511CE0040EC21901E1C35110E0050E0E
:105CA000C21901E1C3510BE0030EC21901E1C35156
:105CB00006E0020EC21901E1C35101E008D0060E50
:105CC000E66EE66A34DEE552E55201D000D000D03F
:105CD000E552E7CFD9FF12000201E30EC66FC76994
:105CE000700EC86FC96B01019451830805E20A0E5A
:105CF0000001FD6FFE6B07D07B0E945D04E2000196
:105D0000F60EFD6FFE6900010A0EFD1901E1FE515C
:105D100008E18150400B05E1010E0201C46FC56B23
:105D20000CD0F60EFD1902E1FF0EFE1906E18150BE
:105D3000400B03E10201C469C5690001020EF919B3
:105D400001E1FA5139E181BC06D0020EE66EE66A45
:105D5000EEDDE552E5528150400B2EE00201020ECD
:105D6000C21901E1C35128E112EC35F0F3CF00F084
:105D7000F4CF01F0010E001801E101501DE0020115
:105D8000010EC41901E1C5510AE1770EC86FC96B54
:105D9000060EE66EE66ACBDDE552E5520DD0C41D77
:105DA00001E1C51D09E1A70EC66FC769050EE66EC4
:105DB000E66ABDDDE552E5528150100B16E10001A7
:105DC000030EF91901E1FA5106E00201050EC219AC
:105DD00001E1C3510AE1010E0201C46FC56B030E5C
:105DE000E66EE66AA4DDE552E5528150200B15E12E
:105DF0000001010EF91901E1FA5106E00201060E57
:105E0000C21901E1C35109E10201C469C569010E6A
:105E1000E66EE66A8CDDE552E552CAC2CCF2CBC230
:105E2000CDF28150400B01E0010E0201CA6FCB6B35
:105E300012000101B651006E016AD890015004E6CB
:105E40009E0E005C000E015811E2B651026E036A0C
:105E5000033404E202508E08000E035407E2050EDC
:105E6000E66EE66AC5DDE552E55281D0B651006EB8
:105E7000016AD890015004E6B00E005C000E015893
:105E800011E2B651026E036A033404E20250A00824
:105E9000000E035407E2060EE66EE66AA9DDE5523F
:105EA000E55265D01C0EB65D0EE2B6510C080BE251
:105EB0000001FB51FC1107E1040EE66EE66A98DD75
:105EC000E552E55254D00101B651006E016AD890F6
:105ED000015004E6050E005C010E015811E2B651B6
:105EE000026E036A033404E20250F808000E035401
:105EF00007E2030EE66EE66A7BDDE552E55237D037
:105F0000B651006E016AD890015004E6DF0E005CC5
:105F1000000E015811E2B651026E036A033404E226
:105F20000250CF08000E035407E2020EE66EE66A46
:105F30005FDDE552E5521BD0B651006E016AD89084
:105F4000015004E6C60E005C000E015810E2B65186
:105F5000026E036A033404E20250B608000E0354D2
:105F600006E2010EE66EE66A43DDE552E5521200F6
:0C5F7000C2C2F3FFC3C2F4FF00D0120055
:045F7C00319E05D07D
:105F8000319E39AE02D0396C318E39C033F0326A6D
:105F9000436A426A860E346E356A67EF32F0319E8C
:105FA00008D0319E39AE05D0386C391EE86A3922E6
:105FB000318E39C033F038C032F0436A426A8E0EF7
:105FC000346E356A67EF32F03F7E316AA3EC32F00F
:105FD000BBEC32F031B64BEF32F031A20AD031AA2D
:105FE00003D031BE4BEF32F031A457EF32F054EF13
:105FF00032F031AA05D031AC57EF32F054EF32F025
:1060000031A00AD031A808D031BE04D031A402D0CA
:1060100060EF32F064EF32F0426A356A3F503A5C2A
:10602000416E10E337C043F038C032F039C033F06E
:106030003AC040F03CC037F03DC038F03EC039F0C7
:10604000313A09D03CC043F03DC032F03EC033F09D
:106050003FC040F0416C319E31BC318E40C034F0C5
:1060600031B093EF32F01A0E416093EF32F0346AA0
:106070003A6A31A408D0376C381E391E3A1EE86AD5
:10608000382239223A2231AC08D0436C321E331EFA
:10609000341EE86A322233223422366A415207E043
:1060A0003A343932383237323632412EF9D7375016
:1060B000432638503222395033223A50342236C0E7
:1060C00042F0319E34AE0BD0426C431E321E331E62
:1060D000341EE86A4322322233223422318E34A025
:1060E00006D0D8803332323243324232402A40C066
:1060F00034F067EF32F0316AA3EC32F0BBEC32F0EF
:1061000031B64BEF32F031A205D031BA4BEF32F05D
:1061100052EF32F031BA5EEF32F031A005D031B833
:106120004BEF32F05EEF32F031B852EF32F0356AB9
:106130007F0E3A24346EE86A35223F50345EE86AB6
:10614000355A1A0E406E3A6A426A436A326A336AB4
:106150003C50375E3D50385A3E50395A000E3A5A3C
:1061600009E73C5037263D5038223E503922000E78
:106170003A2201D0428AD8903736383639363A3604
:10618000D8904236433632363336402EE1D7395036
:1061900038103710D8A4428A67EF32F0316AA3EC86
:1061A00032F0BBEC32F031B64BEF32F031A205D019
:1061B00031B84BEF32F052EF32F031AA05D031B0A6
:1061C0004BEF32F052EF32F031B002D031A802D0B2
:1061D0005EEF32F0356A3F503A24346EE86A352279
:1061E0007E0E345EE86A355A426A436A326A336A1E
:1061F0003E503902F4CF33F0F3CF32F03D50390244
:10620000F3504326F4503222000E33223E5038021F
:10621000F3504326F4503222000E33223C50390210
:10622000F3504226F4504322000E322233223D50D6
:106230003802F3504226F4504322000E3222332219
:106240003E503702F3504226F4504322000E3222D1
:1062500033223C503802F4504226000E43223222B0
:1062600033223D503702F4504226000E43223222A0
:10627000332267EF32F0306A3EAE44EF31F03D6CCE
:106280003E1EE86A3E22301E39AE4CEF31F0386CCB
:10629000391EE86A3922301E83EC3DF039BE5CEFCE
